:020000040800F2
:1000000000000220F13E0008652900086729000869
:10001000692900086B2900086D290008000000000C
:100020000000000000000000000000006F29000830
:1000300071290008000000007329000875290008D4
:10004000413F0008413F0008413F0008413F000890
:10005000413F0008413F0008413F0008413F000880
:10006000413F0008413F0008413F0008413F000870
:10007000413F0008413F0008413F0008413F000860
:10008000413F0008413F0008413F0008413F000850
:10009000413F0008413F0008413F0008413F000840
:1000A000413F0008413F0008413F0008413F000830
:1000B000413F0008413F0008413F0008413F000820
:1000C000413F0008413F0008413F0008413F000810
:1000D000413F0008413F0008413F0008413F000800
:1000E000413F0008413F0008413F0008413F0008F0
:1000F000413F0008413F0008413F0008413F0008E0
:10010000413F0008413F000885290008413F0008A1
:10011000413F0008413F0008413F0008413F0008BF
:10012000413F0008413F0008413F0008413F0008AF
:10013000413F00080000000000000000413F0008AF
:10014000413F0008413F0008413F0008413F00088F
:10015000413F0008413F0008413F0008413F00087F
:10016000413F0008413F0008413F0008413F00086F
:10017000413F0008413F000800000000000000006F
:08018000413F0008413F000867
:1001900010B5054C237833B9044B13B10448AFF3C1
:1001A00000800123237010BDD40100200000000056
:1001B0006067000808B5034B1BB103490348AFF360
:1001C000008008BD00000000D80100206067000822
:1001D000034613F8012B002AFBD1181A0138704787
:1001E00001F0FF01102A2BDB10F0070F08D010F8E8
:1001F000013B013A8B422DD010F0070F42B3F6D1EC
:10020000F0B441EA012141EA014122F007047FF004
:1002100000070023F0E80256083C85EA010586EA5B
:10022000010685FA47F5A3FA87F586FA47F6A5FA97
:1002300087F68EB9EED1F0BC01F0FF0102F00702A3
:1002400032B110F8013B013A83EA010313B1F8D14E
:100250000020704701387047002D06BF354603382F
:10026000073815F0010F07D1013015F4807F02BF68
:10027000013015F4C03F0130F0BC0138704700BFB9
:1002800081F0004102E000BF83F0004330B54FEA47
:1002900041044FEA430594EA050F08BF90EA020FB4
:1002A0001FBF54EA000C55EA020C7FEA645C7FEA47
:1002B000655C00F0E2804FEA5454D4EB5555B8BF6A
:1002C0006D420CDD2C4480EA020281EA030382EADB
:1002D000000083EA010180EA020281EA0303362D6D
:1002E00088BF30BD11F0004F4FEA01314FF4801C40
:1002F0004CEA113102D0404261EB410113F0004F52
:100300004FEA03334CEA133302D0524263EB430308
:1003100094EA050F00F0A780A4F10104D5F1200EA6
:100320000DDB02FA0EFC22FA05F2801841F1000101
:1003300003FA0EF2801843FA05F359410EE0A5F1D5
:1003400020050EF1200E012A03FA0EFC28BF4CF006
:10035000020C43FA05F3C01851EBE37101F00045BC
:1003600007D54FF0000EDCF1000C7EEB00006EEBC9
:100370000101B1F5801F1BD3B1F5001F0CD3490853
:100380005FEA30004FEA3C0C04F101044FEA4452AA
:1003900012F5800F80F09A80BCF1004F08BF5FEA31
:1003A000500C50F1000041EB045141EA050130BD11
:1003B0005FEA4C0C404141EB010111F4801FA4F1B4
:1003C0000104E9D191F0000F04BF01460020B1FA09
:1003D00081F308BF2033A3F10B03B3F120020CDA41
:1003E0000C3208DD02F1140CC2F10C0201FA0CF01F
:1003F00021FA02F10CE002F11402D8BFC2F1200C84
:1004000001FA02F120FA0CFCDCBF41EA0C01904039
:10041000E41AA2BF01EB0451294330BD6FEA040482
:100420001F3C1CDA0C340EDC04F11404C4F120026D
:1004300020FA04F001FA02F340EA030021FA04F37F
:1004400045EA030130BDC4F10C04C4F1200220FAD6
:1004500002F001FA04F340EA0300294630BD21FA14
:1004600004F0294630BD94F0000F83F4801306BFDA
:1004700081F480110134013D4EE77FEA645C18BFCE
:100480007FEA655C29D094EA050F08BF90EA020F65
:1004900005D054EA000C04BF1946104630BD91EA5D
:1004A000030F1EBF0021002030BD5FEA545C05D160
:1004B0004000494128BF41F0004130BD14F580049F
:1004C0003CBF01F5801130BD01F0004545F0FE4113
:1004D00041F470014FF0000030BD7FEA645C1ABF48
:1004E000194610467FEA655C1CBF0B46024650EA7F
:1004F000013406BF52EA033591EA030F41F40021AB
:1005000030BD00BF90F0000F04BF0021704730B530
:100510004FF4806404F132044FF000054FF0000105
:1005200050E700BF90F0000F04BF0021704730B5C6
:100530004FF4806404F1320410F0004548BF40429B
:100540004FF000013EE700BF42004FEAE2014FEAF0
:1005500031014FEA02701FBF12F07F4393F07F4FCB
:1005600081F06051704732F07F4208BF704793F0CE
:100570007F4F04BF41F40021704730B54FF46074E1
:1005800001F0004521F000411CE700BF50EA0102E4
:1005900008BF704730B54FF000050AE050EA01028D
:1005A00008BF704730B511F0004502D5404261EBFD
:1005B00041014FF4806404F132045FEA915C3FF43E
:1005C000D8AE4FF003025FEADC0C18BF03325FEADB
:1005D000DC0C18BF033202EBDC02C2F1200300FA8C
:1005E00003FC20FA02F001FA03FE40EA0E0021FAB1
:1005F00002F11444BDE600BF70B54FF0FF0C4CF49F
:10060000E06C1CEA11541DBF1CEA135594EA0C0F50
:1006100095EA0C0F00F0DEF82C4481EA030621EA8B
:100620004C5123EA4C5350EA013518BF52EA0335C6
:1006300041F4801143F4801338D0A0FB02CE4FF078
:100640000005E1FB02E506F00042E0FB03E54FF0A8
:100650000006E1FB03569CF0000F18BF4EF0010EA0
:10066000A4F1FF04B6F5007F64F5407404D25FEA9C
:100670004E0E6D4146EB060642EAC62141EA55514F
:100680004FEAC52040EA5E504FEACE2EB4F1FD0C91
:1006900088BFBCF5E06F1ED8BEF1004F08BF5FEA0F
:1006A000500E50F1000041EB045170BD06F00046C1
:1006B00046EA010140EA020081EA0301B4EB5C046E
:1006C000C2BFD4EB0C0541EA045170BD41F4801166
:1006D0004FF0000E013C00F3AB8014F1360FDEBF8B
:1006E000002001F0004170BDC4F10004203C35DA67
:1006F0000C341BDC04F11404C4F1200500FA05F3EA
:1007000020FA04F001FA05F240EA020001F000428A
:1007100021F0004110EBD37021FA04F642EB060100
:100720005EEA430E08BF20EAD37070BDC4F10C042A
:10073000C4F1200500FA04F320FA05F001FA04F2EE
:1007400040EA020001F0004110EBD37041F10001DA
:100750005EEA430E08BF20EAD37070BDC4F12005E5
:1007600000FA05F24EEA020E20FA04F301FA05F24D
:1007700043EA020321FA04F001F0004121FA04F2F5
:1007800020EA020000EBD3705EEA430E08BF20EAC5
:10079000D37070BD94F0000F0FD101F000464000FF
:1007A00041EB010111F4801F08BF013CF7D041EA81
:1007B000060195F0000F18BF704703F00046520085
:1007C00043EB030313F4801F08BF013DF7D043EA56
:1007D0000603704794EA0C0F0CEA135518BF95EA0C
:1007E0000C0F0CD050EA410618BF52EA4306D1D193
:1007F00081EA030101F000414FF0000070BD50EAB2
:10080000410606BF1046194652EA430619D094EA3B
:100810000C0F02D150EA013613D195EA0C0F05D125
:1008200052EA03361CBF104619460AD181EA030179
:1008300001F0004141F0FE4141F470014FF0000031
:1008400070BD41F0FE4141F4780170BD70B54FF0CC
:10085000FF0C4CF4E06C1CEA11541DBF1CEA13554C
:1008600094EA0C0F95EA0C0F00F0A7F8A4EB05042E
:1008700081EA030E52EA03354FEA013100F0888025
:100880004FEA03334FF0805545EA131343EA1263EE
:100890004FEA022245EA111545EA10654FEA0026A3
:1008A0000EF000419D4208BF964244F1FD0404F55C
:1008B000407402D25B084FEA3202B61A65EB0305B8
:1008C0005B084FEA32024FF480104FF4002CB6EB75
:1008D000020E75EB030E22BFB61A754640EA0C00F5
:1008E0005B084FEA3202B6EB020E75EB030E22BF35
:1008F000B61A754640EA5C005B084FEA3202B6EB76
:10090000020E75EB030E22BFB61A754640EA9C0034
:100910005B084FEA3202B6EB020E75EB030E22BF04
:10092000B61A754640EADC0055EA060E18D04FEAC2
:10093000051545EA16754FEA06164FEAC30343EA62
:1009400052734FEAC2025FEA1C1CC0D111F4801F2F
:100950000BD141EA00014FF000004FF0004CB6E728
:1009600011F4801F04BF01430020B4F1FD0C88BFC7
:10097000BCF5E06F3FF6AFAEB5EB030C04BFB6EBD2
:10098000020C5FEA500C50F1000041EB045170BDC5
:100990000EF0004E4EEA113114EB5C04C2BFD4EBF2
:1009A0000C0541EA045170BD41F480114FF0000E76
:1009B000013C90E645EA060E8DE60CEA135594EAF2
:1009C0000C0F08BF95EA0C0F3FF43BAF94EA0C0FF5
:1009D0000AD150EA01347FF434AF95EA0C0F7FF46A
:1009E00025AF104619462CE795EA0C0F06D152EABE
:1009F00003353FF4FDAE1046194622E750EA4106A2
:100A000018BF52EA43067FF4C5AE50EA41047FF4B2
:100A10000DAF52EA43057FF4EBAE12E74FF0FF3C17
:100A200006E000BF4FF0010C02E000BF4FF0010CE8
:100A30004DF804CD4FEA410C7FEA6C5C4FEA430C61
:100A400018BF7FEA6C5C1BD001B050EA410C0CBFB0
:100A500052EA430C91EA030F02BF90EA020F002012
:100A6000704710F1000F91EA030F58BF994208BF79
:100A700090422CBFD8176FEAE37040F00100704736
:100A80004FEA410C7FEA6C5C02D150EA013C07D18D
:100A90004FEA430C7FEA6C5CD6D152EA033CD3D0D8
:100AA0005DF8040B704700BF8446104662468C46D2
:100AB0001946634600E000BF01B5FFF7B7FF002805
:100AC00048BF10F1000F01BD4DF808EDFFF7F4FF2E
:100AD0000CBF012000205DF808FB00BF4DF808EDB9
:100AE000FFF7EAFF34BF012000205DF808FB00BFDC
:100AF0004DF808EDFFF7E0FF94BF012000205DF8FE
:100B000008FB00BF4DF808EDFFF7CEFF94BF0120B2
:100B100000205DF808FB00BF4DF808EDFFF7C4FFAB
:100B200034BF012000205DF808FB00BF4FEA410CF4
:100B30007FEA6C5C02D150EA013C0AD14FEA430CD7
:100B40007FEA6C5C02D152EA033C02D14FF0000014
:100B500070474FF0010070474FEA410212F5001252
:100B600015D211D56FF47873B3EB625212D94FEAF4
:100B7000C12343F0004343EA505311F0004F23FADE
:100B800002F018BF404270474FF00000704750EA33
:100B9000013005D111F0004008BF6FF000407047F0
:100BA0004FF00000704700BF2DE9F843044601688C
:100BB0000A6922F44052C36813430B610168CA6892
:100BC00022F4164222F00C02836800690343606934
:100BD0000343E06903431343CB6021684A6922F46D
:100BE0004072A36913434B61E369B3F5004F60D0D2
:100BF0002368B84A934200F0148102F58062934260
:100C000000F00F8101F08AFA00EB800000EB800019
:100C10006568AD00B0FBF5F5AF4FA7FB05356D0975
:100C20002E0101F07BFA00EB800000EB800065688C
:100C3000AD00B0FBF5F901F071FA00EB800000EBBC
:100C400080006568AD00B0FBF5F5A7FB05356D09C3
:100C50004FF0640808FB15952D013235A7FB0535CB
:100C60006D0905F0F005354401F058FA00EB8000FD
:100C700000EB80006668B600B0FBF6F601F04EFAB5
:100C800000EB800000EB800063689B00B0FBF3F09A
:100C9000A7FB0030400908FB10684FEA081808F16C
:100CA0003208A7FB0837C7F3431723682F449F6018
:100CB0000DE12368874A93425BD002F5806293423C
:100CC00057D001F02BFA00EB800000EB8000656844
:100CD0006D00B0FBF5F5804FA7FB05356D092E01C2
:100CE00001F01CFA00EB800000EB800065686D00ED
:100CF000B0FBF5F901F012FA00EB800000EB800088
:100D000065686D00B0FBF5F5A7FB05356D094FF083
:100D1000640808FB1595ED003235A7FB05356D0914
:100D20006D0005F4F875354401F0F8F900EB80002A
:100D300000EB800066687600B0FBF6F601F0EEF995
:100D400000EB800000EB800063685B00B0FBF3F316
:100D5000A7FB03235B0908FB13684FEAC80808F1E7
:100D60003208A7FB0837C7F3421723682F449F6058
:100D7000ADE001F0E9F900EB800000EB8000656870
:100D80006D00B0FBF5F5544FA7FB05356D092E013D
:100D900001F0DAF900EB800000EB800065686D007F
:100DA000B0FBF5F901F0D0F900EB800000EB80001A
:100DB00065686D00B0FBF5F5A7FB05356D094FF0D3
:100DC000640808FB1595ED003235A7FB05356D0964
:100DD0006D0005F4F875354401F0B6F900EB8000BC
:100DE00000EB800066687600B0FBF6F601F0ACF927
:100DF00000EB800000EB800063685B00B0FBF3F366
:100E0000A7FB03235B0908FB13684FEAC80808F136
:100E10003208A7FB0837C7F3421723682F449F60A7
:100E200055E001F091F900EB800000EB800065686F
:100E3000AD00B0FBF5F5284FA7FB05356D092E0178
:100E400001F082F900EB800000EB80006568AD00E6
:100E5000B0FBF5F901F078F900EB800000EB8000C1
:100E60006568AD00B0FBF5F5A7FB05356D094FF0E2
:100E7000640808FB15952D013235A7FB05356D0972
:100E800005F0F005354401F05FF900EB800000EB60
:100E900080006668B600B0FBF6F601F055F900EB8D
:100EA000800000EB800063689B00B0FBF3F0A7FBC1
:100EB0000030400908FB10684FEA081808F13208B2
:100EC000A7FB0837C7F3431723682F449F60BDE88B
:100ED000F88300BF001001401F85EB512DE9F04160
:100EE00005460F4616469846069C2B681B6837EA4F
:100EF00003030CBF01230023B3421DD1B4F1FF3F14
:100F0000F3D02CB100F0DCF9A0EB0800A042ECD942
:100F10002A68D36823F4D073D3602A68536923F016
:100F200001035361202385F8393085F83A300023D6
:100F300085F83830032000E00020BDE8F08158B388
:100F400010B5044690F839300BB3242384F83930B7
:100F50002268D36823F40053D3602046FFF724FEB1
:100F60002268136923F4904313612268536923F0C4
:100F70002A0353612268D36843F40053D3600020EE
:100F8000E063202384F8393084F83A3010BD80F8CB
:100F9000383000F0A1FDD8E7012070472DE9F0417D
:100FA00082B01E4690F83930DBB2202B55D1044672
:100FB0000D469046002955D0002A55D090F838307B
:100FC000012B53D0012380F838300023C363212341
:100FD00080F8393000F074F90746A4F82480A4F8AA
:100FE000268010E000963B46002280212046FFF735
:100FF00075FF00283CD12B882268C3F30803536097
:101000002369C3B90235E38C9BB2B3B1E38C013BD6
:101010009BB2E384A368B3F5805FE3D000963B46C0
:10102000002280212046FFF759FF18BB2A78236849
:101030005A600135E7E70135E5E700963B460022B7
:1010400040212046FFF74AFF0346A8B9202284F832
:101050003920002284F8382000E00223184602B02C
:10106000BDE8F0810123F9E70123F7E70223F5E763
:101070000323F3E70323F1E70323EFE700230F2B19
:1010800000F2D780F0B482B039E0072200E00022FD
:10109000B2403A430234674E46F82420664A146848
:1010A000EA4302EA04064F6817F4803F01D045EA9C
:1010B0000406614C2660646802EA04064F6817F46F
:1010C000003F01D045EA04065B4C6660A46802EA72
:1010D00004064F6817F4801F01D045EA0406564CF9
:1010E000A660E46822404E6816F4001F01D045EA6D
:1010F0000402514CE26001330F2B00F29780012271
:101100009A400C6804EA0205AA42F4D14C68022C09
:1011100001D0122C10D1DE08083650F826C003F09A
:101120000704A7000F24BC402CEA040C0C69BC4047
:1011300044EA0C0440F8264004685F000326BE40E1
:10114000F64306EA040C4C6804F00304BC4044EA8D
:101150000C0404604C6804F1FF3CBCF1010F03D99E
:10116000112C01D0122C10D1846806EA040CCC6832
:10117000BC4044EA0C048460446824EA02024C68DF
:10118000C4F300149C4014434460C26816408A684B
:10119000BA403243C2604A6812F0805FABD000228E
:1011A0000192264A546C44F480445464526C02F414
:1011B00080420192019A9C08A61C1E4A52F8267091
:1011C00003F0030296000F22B24027EA02071C4AEE
:1011D00090423FF45CAF02F5806290421AD002F573
:1011E0008062904218D002F58062904216D002F5DB
:1011F0008062904214D002F58062904212D002F5D3
:101200008062904210D002F5806290423FF43DAF80
:1012100008223DE701223BE7022239E7032237E7B4
:10122000042235E7052233E7062231E702B0F0BC9D
:101230007047704700380140003C014000380240D0
:101240000000024012B90904816170478161704752
:1012500010B50446074B1868074BA3FB0030800904
:1012600000F098F8002221464FF0FF3000F052F8CD
:10127000002010BD00000020D34D621008B50B4BBC
:101280001A6842F400721A601A6842F480621A60A6
:101290001A6842F480721A60032000F029F80020D6
:1012A000FFF7D6FF00F04EFB002008BD003C0240D7
:1012B000024A136801331360704700BFFC0100202D
:1012C000014B1868704700BFFC01002030B583B0A7
:1012D0000190FFF7F5FF0546019CB4F1FF3F00D0F8
:1012E0000134FFF7EDFF401BA042FAD303B030BD3D
:1012F000074AD36823F4E0631B041B0C000200F4CC
:10130000E060184340F0BF6040F40030D0607047A8
:1013100000ED00E030B4174BDB68C3F30223C3F1E8
:101320000704042C28BF04241D1D062D18D9033BD7
:101330004FF0FF3505FA04F421EA0401994005FA5B
:1013400003F322EA0303194300280BDB0901C9B2A6
:1013500000F1604000F5614080F8001330BC704738
:101360000023E5E700F00F000901C9B2024B195450
:10137000F4E700BF00ED00E014ED00E000F01F0214
:10138000400901239340024A42F82030704700BFD1
:1013900000E100E00138B0F1807F0AD2064B5860CE
:1013A000064AF02182F823100020986007221A6074
:1013B00070470120704700BF10E000E000ED00E042
:1013C000042805D0054A136823F00403136070470E
:1013D000024A136843F004031360704710E000E012
:1013E000704708B5FFF7FCFF08BD000000B583B0EB
:1013F00002A901F8010D01231A460348FFF7CEFDAB
:1014000003B05DF804FB00BF2003002008B5084BC3
:101410001A8840F235639A4204D90221012001F072
:10142000A5F908BD0121084601F0A0F9F9E700BFC0
:1014300000020020FEE7000000B595B000220192F6
:10144000294B196C41F0805119641B6C03F08053D7
:101450000193019B0292254B196841F48041196068
:101460001B6803F480430293029B0223089301212B
:101470000B9110210C910E930F9208221092502282
:10148000119212930423139308A800F051FB18BB88
:101490000F23039302230493802305934FF4805377
:1014A000069300230793012103A800F063FDB8B958
:1014B00000F02EFE0E4BA3FB00308009FFF76AFF01
:1014C0000420FFF77DFF002211464FF0FF30FFF7A9
:1014D00021FF15B05DF804FBC9210648FFF7AAFFFC
:1014E000D7210448FFF7A6FF0038024000700040F3
:1014F000D34D6210A867000800B583B0FFF7BEFEA9
:10150000FFF79AFF01F0A0F800F0C8FA01F05EFEC4
:1015100001F08AFF01F0E0FF01F022FE02F0E8FB9B
:1015200000F03EF800F074F800F0AAF801F084FE34
:101530000521012001F01AF94FF44871872002F0CB
:1015400015F84FF4FA70FFF7C1FE0021092002F0F0
:101550000DF802F06DFC0D4801F0E3FA02F046F8D8
:101560000B4B1B680021986803F092F9FFF74EFFC0
:101570000848836882694169074C24880194C068DF
:101580000090064803F06CF9F0E700BFA4030020C8
:10159000040000200402002000020020B4670008BC
:1015A00000B585B01648174B03604FF48033436095
:1015B000002383600122026182610362C3621249D7
:1015C0008162C360C2610363426100F071FE68B969
:1015D00000230093012301930323029369460848E3
:1015E00000F06AFF38B905B05DF804FB4A210748EE
:1015F000FFF720FFECE754210448FFF71BFFF2E759
:1016000090020020002001400100000FE867000860
:1016100000B585B01648174B03604FF48033436024
:10162000002383600122026182610362C362124966
:101630008162C360C2610363426100F039FE68B930
:10164000042300930123019303230293694608486E
:1016500000F032FF38B905B05DF804FB6D21074892
:10166000FFF7E8FEECE777210448FFF7E3FEF2E737
:1016700048020020002101400100000FE867000837
:1016800000B585B01648174B03604FF480334360B4
:10169000002383600122026182610362C3621249F6
:1016A0008162C360C2610363426100F001FE68B9F8
:1016B0000A230093012301930323029369460848F8
:1016C00000F0FAFE38B905B05DF804FB9021074838
:1016D000FFF7B0FEECE79A210448FFF7ABFEF2E714
:1016E000D8020020002201400100000FE867000836
:1016F00000B589B00368274A934208D0264A93422E
:101700001BD0264A93422ED009B05DF804FB00217D
:101710000091234B5A6C42F480725A645B6C03F460
:1017200080730093009B0F2303930323049305917D
:1017300003A91C48FFF7A2FCE6E700210191184B22
:101740005A6C42F400725A645B6C03F400730193A8
:10175000019BF023039303230493059103A91148EC
:10176000FFF78CFCD0E7002102910D4B5A6C42F43C
:1017700080625A645B6C03F480630293029B0F23C4
:10178000039303230493059103A90748FFF776FC0D
:10179000BAE700BF002001400021014000220140C3
:1017A00000380240000002400008024030B589B015
:1017B0001A4B0FCB08AC04E90F000123019303235C
:1017C0000293002400E00134032C25DC08AB03EB7A
:1017D000840353F8103C08A941F8203D104D2846D9
:1017E00000F06AFE284600F08DFD32210C4800F022
:1017F00005FE0028F9D10A4800F05BFEC4F104039D
:1018000080B2084A22F81300B0F5FA6FDBD24FF429
:10181000FA6122F81310D6E709B030BD78670008E6
:10182000900200203002002030B589B0214B0FCB50
:1018300008AC04E90F000123019303230293002461
:101840000CE01D4800F035FE80B21C4B1880B0F54E
:10185000FA6F02D24FF4FA621A800134032C27DCAB
:1018600008AB03EB840353F8103C08A941F8203D72
:10187000114D284600F020FE284600F043FD32219D
:101880000D4800F0BBFD0028F9D1002CD9D0631E13
:10189000012B05D9084800F00CFE094B1880DCE745
:1018A000054800F006FE631E064A22F81300D4E73E
:1018B00009B030BD886700084802002030020020CF
:1018C000000200204402002030B589B01A4B0FCB33
:1018D00008AC04E90F0001230193032302930024C1
:1018E00000E00134032C25DC08AB03EB840353F840
:1018F000103C08A941F8203D104D284600F0DCFDC1
:10190000284600F0FFFC32210C4800F077FD00284B
:10191000F9D10A4800F0CDFDC4F1080380B2084AAD
:1019200022F81300B0F5FA6FDBD24FF4FA6122F817
:101930001310D6E709B030BD98670008D802002020
:101940003002002008B50320FFF7D2FC0022114628
:101950006FF00B00FFF7DEFC002211466FF00A006B
:10196000FFF7D8FC002211466FF00900FFF7D2FC08
:10197000002211466FF00400FFF7CCFC0022114654
:101980006FF00300FFF7C6FC002211466FF0010064
:10199000FFF7C0FC002211464FF0FF30FFF7BAFC02
:1019A00008BD90F83830012B22D030B4012280F8E5
:1019B0003820022380F839300468636823F070030C
:1019C0006360046863680D682B4363600468A36800
:1019D00023F08003A3600468A36849680B43A360F5
:1019E00080F83920002380F83830184630BC704722
:1019F0000220704790F83830012B25D0012380F861
:101A00003830CB6823F440738A68134323F480632F
:101A10004A68134323F400630A68134323F4805392
:101A20000A69134323F400534A69134323F48043A0
:101A30008A69134323F40043134302685364002369
:101A400080F838301846704702207047704770475A
:101A50000F49D1F8883043F47003C1F888300D4B3A
:101A60001A6842F001021A60002098601A6822F099
:101A7000847222F480321A60074A5A601A6822F48B
:101A800080221A60D8604FF000638B60704700BFFF
:101A900000ED00E0003802401030002408B50B488B
:101AA0000B4B03604FF41653436000238360C36005
:101AB00003610C2242618361C361FFF740FA00B900
:101AC00008BD42210348FFF7B5FCF9E720030020D9
:101AD000001001400C6800080268124B9A4200D0C6
:101AE000704700B587B0002300930F4B5A6C42F04B
:101AF00010025A645B6C03F010030093009B4FF4D8
:101B0000C0630193022302930123039303230493ED
:101B10000723059301A90548FFF7B0FA07B05DF860
:101B200004FB00BF001001400038024000000240EA
:101B300030B583B00446036813F0010F3BD0A94BC6
:101B40009B6803F00C03042B2CD0A64B9B6803F07E
:101B50000C03082B21D06368B3F5803F4FD0B3F559
:101B6000A02F52D09F4B1A6822F480321A601A6854
:101B700022F480221A606368002B50D0FFF7A0FB8C
:101B80000546984B1B6813F4003F14D1FFF798FBF0
:101B9000401B6428F5D9032099E1924B5B6813F44C
:101BA000800FD8D08F4B1B6813F4003F03D06368BD
:101BB000002B00F08981236813F0020F5BD0894B62
:101BC0009B6813F00C0F3ED0864B9B6803F00C0310
:101BD000082B33D0E368002B74D0834B01221A60AA
:101BE000FFF76EFB05467F4B1B6813F0020F5AD1BF
:101BF000FFF766FB401B0228F5D9032067E1794A0D
:101C0000136843F480331360B5E7764B1A6842F4E7
:101C100080221A601A6842F480321A60ABE7FFF73C
:101C20004FFB05466F4B1B6813F4003FC3D0FFF713
:101C300047FB401B6428F5D9032048E1694B5B68EA
:101C400013F4800FC6D1674B1B6813F0020F04D04A
:101C5000E368012B01D0012039E16248036823F0D9
:101C6000F8032169F82292FAA2F2B2FA82F201FA9A
:101C700002F213430360236813F0080F46D0636930
:101C800093B35A4B01221A60FFF71AFB0546554BD6
:101C90005B6F13F0020F39D1FFF712FB401B0228D4
:101CA000F5D9032013E14F48036823F0F8032169B5
:101CB000F82292FAA2F2B2FA82F201FA02F2134385
:101CC0000360D8E7484B00221A60FFF7F9FA05468F
:101CD000444B1B6813F0020FCDD0FFF7F1FA401B05
:101CE0000228F5D90320F2E0404B00221A60FFF7EA
:101CF000E7FA05463B4B5B6F13F0020F06D0FFF788
:101D0000DFFA401B0228F5D90320E0E0236813F036
:101D1000040F20D1A369002B00F0D880314A9268CB
:101D200002F00C02082A00F0D480022B00F0808020
:101D30002F4B00221A60FFF7C3FA0446294B1B6899
:101D400013F0007F00F0BE80FFF7BAFA001B0228F4
:101D5000F4D90320BBE000230193224B1A6C42F01C
:101D600080521A641B6C03F080530193019B214A3B
:101D7000136843F480731360FFF7A2FA05461D4B06
:101D80001B6813F4807F06D1FFF79AFA401B0228E4
:101D9000F5D903209BE0A368012B1DD0052B2BD088
:101DA000104B1A6F22F001021A671A6F22F0040218
:101DB0001A67A36853B3FFF783FA0546094B1B6FF5
:101DC00013F0020FA6D1FFF77BFA401B41F28833D4
:101DD0009842F3D903207AE0024A136F43F00103DB
:101DE0001367E6E70038024000004742800E474292
:101DF0006000474200700040374B1A6F42F0040207
:101E00001A671A6F42F001021A67D2E7FFF758FA11
:101E10000546314B1B6F13F0020F3FF47BAFFFF70A
:101E20004FFA401B41F288339842F2D903204EE02A
:101E30002A4B00221A60FFF743FA0546264B1B681F
:101E400013F0007F06D0FFF73BFA401B0228F5D9BC
:101E500003203CE0E369226A1343616A47F6C072DB
:101E600092FAA2F2B2FA82F201FA02F21343A26AE1
:101E70005208013A4FF4403191FAA1F1B1FA81F1DF
:101E80008A401343E16A4FF0706292FAA2F2B2FA0A
:101E900082F201FA02F213430F4A53600F4B012200
:101EA0001A60FFF70DFA04460B4B1B6813F0007F16
:101EB00006D1FFF705FA001B0228F5D9032006E03A
:101EC000002004E0002002E0012000E0002003B038
:101ED00030BD0120FBE700BF0038024060004742F0
:101EE000214B9B6803F00C03042B3AD0082B01D044
:101EF0001E4870471C4B586800F03F005B6813F4A5
:101F0000800F1ED01A4AB2FBF0F2174B586847F602
:101F1000C073184093FAA3F3B3FA83F3D84000FBDD
:101F200002F0114B5B6803F440334FF4403292FAF5
:101F3000A2F2B2FA82F2D34001335B00B0FBF3F0BD
:101F400070470A4AB2FBF0F2074B586847F6C07375
:101F5000184093FAA3F3B3FA83F3D84000FB02F0DE
:101F6000DFE70348704700BF003802400024F40058
:101F700040787D01624B1B6803F00F038B4209D24E
:101F8000CBB25F4A1370136803F00F038B4201D08A
:101F90000120704770B5036813F0020F06D0594A4C
:101FA000936823F0F0038468234393600C4605464E
:101FB000036813F0010F64D04368012B26D09A1EEA
:101FC000012A2AD94F4A126812F0020F00F09680B7
:101FD0004C498A6822F0030213438B60FFF770F9C3
:101FE00006466B68012B1FD0022B2CD0032B39D057
:101FF000444B9B6813F00C0F43D0FFF761F9801B33
:1020000041F288339842F3D9032076E03D4A1268C2
:1020100012F4003FDCD101206FE03A4A126812F05E
:10202000007FD5D1012068E0364B9B6803F00C039C
:10203000042B26D0FFF744F9801B41F288339842E5
:10204000F2D9032059E02F4B9B6803F00C03082BB7
:1020500017D0FFF735F9801B41F288339842F2D947
:1020600003204AE0274B9B6803F00C030C2B08D09D
:10207000FFF726F9801B41F288339842F2D90320FA
:102080003BE01F4B1B6803F00F03A34209D9E2B2E8
:102090001B4B1A701B6803F00F03A34201D00120F1
:1020A0002BE02B6813F0040F06D0164A936823F434
:1020B000E053E9680B4393602B6813F0080F07D0D7
:1020C000104A936823F46043296943EAC10393608B
:1020D000FFF706FF0B4B9B6803F0F003F02292FA28
:1020E000A2F2B2FA82F2D340074AD35CD840074B3F
:1020F00018600020FFF7ACF8002070BD0120FCE75D
:10210000003C024000380240F46700080000002054
:10211000014B1868704700BF0000002008B5FFF7AA
:10212000F7FF074B9B6803F4E0534FF4E05292FA39
:10213000A2F2B2FA82F2D340024AD35CD84008BD80
:10214000003802400468000808B5FFF7E1FF074BBC
:102150009B6803F460434FF4604292FAA2F2B2FA31
:1021600082F2D340024AD35CD84008BD0038024016
:10217000046800084C4B5A6822F440325A605A688E
:1021800041680A435A600268536823F480735360BD
:1021900002685368016943EA012353600268536887
:1021A00023F0407353600268536881680B435360A7
:1021B0000268936823F40063936002689368C168BF
:1021C0000B439360826A394B9A4249D00268936804
:1021D00023F07063936002689368816A0B43936095
:1021E0000268936823F04053936002689368C16A61
:1021F0000B4393600268936823F0020393600268C4
:102200009368816943EA41039360036A002B32D1EA
:102210000268536823F4006353600268D36A23F4AE
:102220007003D3620168CB6AC269013A43EA025380
:10223000CB620268936823F400739360026893682A
:10224000016B43EA412393600268936823F480633F
:10225000936002689368416943EA81239360704701
:102260000268936823F0706393600268936823F0B8
:1022700040539360BEE70268536843F400635360C1
:102280000268536823F460435360436A013B4FF490
:10229000604292FAA2F2B2FA82F2934001684A686E
:1022A00013434B60B9E700BF002301400100000F5A
:1022B00030B310B50446036C43B1236C13F0100F18
:1022C0000AD00120002384F83C3010BD436480F81C
:1022D0003C30FFF70DFAF0E7236C23F4885323F02A
:1022E000020343F0020323642046FFF743FF00206C
:1022F0006064236C23F0030343F001032364E1E7EC
:102300000120704782B00023019390F83C30012BEC
:1023100063D0012380F83C3003689A6812F0010F03
:1023200013D19A6842F001029A60304B1B68304A20
:10233000A2FB03239B0C03EB4303019302E0019BED
:10234000013B0193019B002BF9D10268936813F0C4
:10235000010F44D0036C23F4E06323F0010343F442
:1023600080730364536813F4806F05D0036C23F407
:10237000405343F480530364036C13F4805F19D01B
:10238000436C23F006034364002380F83C306FF075
:1023900022031360174B5B6813F01F0F0DD1036806
:1023A0009A6812F0405F1DD19A6842F080429A60AC
:1023B000002015E000234364E6E703680E4A9342D9
:1023C00001D000200CE09A6812F0405F0CD19A68AE
:1023D00042F080429A60002002E0022000E00020EB
:1023E00002B070470020FBE70020F9E70000002062
:1023F00083DE1B43002301400020014003689A68EC
:1024000012F4806F03D09B6813F4807F1CD170B5E9
:102410000D460446FEF754FF064623681A6812F07C
:10242000020F1AD1B5F1FF3FF7D025B1FEF748FFF3
:10243000801BA842F1D9236C43F0040323640023DA
:1024400084F83C3003202DE0036C43F02003036448
:10245000002380F83C30012070476FF012021A60B0
:10246000236C43F40073236423689A6812F0405F7E
:1024700017D1A269BAB9DA6A12F4700F03D09B6857
:1024800013F4806F11D1236C23F480732364236CC5
:1024900013F4805F0BD1236C43F00103236400200D
:1024A00000E0002070BD0020FCE70020FAE70020DB
:1024B000F8E70368D86C704730B482B0002301930A
:1024C00090F83C30012B00F0B780012380F83C30BD
:1024D0000B68092B3ED90568EA689BB203EB4303FE
:1024E0001E3B072404FA03F322EA0303EB600568AA
:1024F000EA688C680B8803EB43031E3B04FA03F382
:102500001343EB604B68062B3AD805686A6B03EB04
:102510008303053B1F2404FA03F322EA03036B63DE
:1025200005686A6B4B6803EB8303053B0C8804FA70
:1025300003F313436B630268404B9A4250D0026826
:102540003E4B9A4255D0002380F83C30184602B0EA
:1025500030BC704705682A699BB203EB430307242C
:1025600004FA03F322EA03032B6105682A698C68E5
:102570000B8803EB430304FA03F313432B61C1E716
:102580000C2B16D805682A6B03EB8303233B1F240F
:1025900004FA03F322EA03032B6305682A6B4B68F2
:1025A00003EB8303233B0C8804FA03F313432B63ED
:1025B000C1E70568EA6A03EB8303413B1F2404FA81
:1025C00003F322EA0303EB620568EA6A4B6803EB54
:1025D0008303413B0C8804FA03F31343EB62AAE73D
:1025E0000B68122BABD1164A536843F48003536037
:1025F000A5E70B68103B012BA5D8114A536843F49B
:10260000000353600B68102B9DD10E4B1B6802F129
:10261000467202F52E3202F28332A2FB03239B0C98
:1026200003EB83035A00019202E0019B013B0193FB
:10263000019B002BF9D186E7022088E700200140AA
:1026400000230140000000202DE9F0438BB000245E
:102650000194414B1A6B42F004021A631A6B02F0A8
:1026600004020192019A02941A6B42F001021A6369
:102670001A6B02F001020292029A03941A6B42F062
:1026800002021A631A6B02F002020392039A049484
:102690001A6B42F008021A631B6B03F008030493E1
:1026A000049B2E4E22464FF47B413046FEF7CAFD76
:1026B000DFF8B090224641F218014846FEF7C2FD0D
:1026C000274F22464FF440513846FEF7BBFDDFF856
:1026D0009880224604214046FEF7B4FD4FF47B4328
:1026E0000593012506950794089405A93046FEF741
:1026F000C5FC41F21803059306950794089405A9B3
:102700004846FEF7BBFC4FF4084305930694079434
:1027100005A93846FEF7B2FC4FF4405305930695E1
:102720000794089405A93846FEF7A8FC4FF4806387
:1027300005930694079405A93046FEF79FFC0423F1
:10274000059306950794089405A94046FEF796FC64
:102750000BB0BDE8F08300BF003802400008024023
:102760000000024000040240000C024010B5013895
:10277000042800F2B180DFE800F003ACBECFE00037
:10278000072900F2A980DFE801F004182C40546802
:102790007C90724C01224FF480412046FEF752FD9E
:1027A00001224FF400512046FEF74CFD01224FF468
:1027B00000412046FEF746FD8EE0684C00224FF4B3
:1027C00080412046FEF73EFD01224FF40051204695
:1027D000FEF738FD01224FF400412046FEF732FD9E
:1027E0007AE05E4C01224FF480412046FEF72AFD3C
:1027F00000224FF400512046FEF724FD01224FF441
:1028000000412046FEF71EFD66E0544C01224FF4C5
:1028100080412046FEF716FD01224FF4005120466C
:10282000FEF710FD00224FF400412046FEF70AFD9E
:1028300052E04A4C00224FF480412046FEF702FD50
:1028400001224FF400512046FEF7FCFC00224FF419
:1028500000412046FEF7F6FC3EE0404C01224FF4DA
:1028600080412046FEF7EEFC00224FF40051204646
:10287000FEF7E8FC00224FF400412046FEF7E2FCA0
:102880002AE0364C00224FF480412046FEF7DAFC65
:1028900000224FF400512046FEF7D4FC01224FF4F1
:1028A00000412046FEF7CEFC16E02C4C00224FF4EF
:1028B00080412046FEF7C6FC00224FF4005120461E
:1028C000FEF7C0FC00224FF400412046FEF7BAFCA0
:1028D00002E011B1012907D010BD01224FF480514F
:1028E0001F48FEF7AFFCF7E700224FF480511C4869
:1028F000FEF7A8FCF0E741B10129EDD100224FF429
:1029000000511748FEF79EFCE6E701224FF4005104
:102910001348FEF797FCDFE741B10129DCD1002223
:102920004FF480710D48FEF78DFCD5E701224FF47E
:1029300080710A48FEF786FCCEE741B10129CBD170
:1029400000224FF400710548FEF77CFCC4E7012229
:102950004FF400710148FEF775FCBDE70008024026
:10296000000002407047FEE7FEE7FEE7FEE7704723
:102970007047704708B5FEF79BFCFEF732FD00F08C
:1029800043FE08BD08B5054800F060F9FEF70EFFEC
:10299000FEF74AFFFEF798FF08BD00BFA403002022
:1029A00070B4036A23F001030362036A4268846916
:1029B00024F073040D6845EA040623F002048B68D2
:1029C00023430C4DA84202D00B4CA0420BD123F064
:1029D0000803CD682B4323F0040322F440724D69B1
:1029E00015438A692A43426086614A6842630362EA
:1029F00070BC7047000001400004014030B4036A1D
:102A000023F480730362036A4268C46924F0730488
:102A10000D682C4323F400738D6843EA05230E4DA3
:102A2000A84203D005F58065A8420ED123F40063C7
:102A3000CD6843EA052323F4806322F440524D69B4
:102A400042EA05128D6942EA05124260C4614A6891
:102A5000C263036230BC70470000014030B4036AB7
:102A600023F480530362036A4468C26922F4E64295
:102A70000D6842EA052223F400538D6843EA0533CA
:102A8000094DA84203D005F58065A84204D124F47D
:102A900080444D6944EA85144460C2614A68026416
:102AA000036230BC704700BF0000014010B4036AED
:102AB000046A24F001040462846924F0F00444EA06
:102AC000021223F00A030B43826103625DF8044B98
:102AD000704710B4036A23F0100303628469036A29
:102AE00024F4704444EA023223F0A00343EA0113C1
:102AF000826103625DF8044B7047836823F07003C2
:102B000041F0070119438160704710B4846824F4D0
:102B10007F4442EA03230B43234383605DF8044B65
:102B200070470268D36843F00103D36002681368FA
:102B300043F0010313600020704790F83830012BF8
:102B40007DD010B50446012380F83830022380F888
:102B500039300268936823F47F4323F0770393604E
:102B60000B68402B57D010D9702B3ED01FD8502B5C
:102B700047D0602B32D1CA6849680068FFF7A9FFC7
:102B800060212068FFF7B9FF28E0102B4DD008D94D
:102B9000202B4FD0302B21D130210068FFF7ADFF23
:102BA0001CE0DBB900210068FFF7A7FF16E0B3F5D2
:102BB000805F0ED0B3F5005F10D1CB684A6889689A
:102BC0000068FFF7A2FF2268936843F48043936094
:102BD00004E00268936823F007039360012384F8FC
:102BE0003930002084F8380010BDCB684A68896805
:102BF0000068FFF78AFF2268936843F077039360C9
:102C0000ECE7CA6849680068FFF750FF5021206868
:102C1000FFF773FFE2E7CA6849680068FFF746FFFD
:102C200040212068FFF769FFD8E710210068FFF70F
:102C300064FFD3E720210068FFF75FFFCEE70220A3
:102C400070477047704770477047704710B504462B
:102C500003681A6912F0020F11D0DA6812F0020F3D
:102C60000DD06FF002021A610123037603689B699D
:102C700013F0030F70D0FFF7E6FF002323762368DD
:102C80001A6912F0040F12D0DA6812F0040F0ED095
:102C90006FF004021A610223237623689B6913F400
:102CA000407F5FD02046FFF7CEFF002323762368C6
:102CB0001A6912F0080F12D0DA6812F0080F0ED05D
:102CC0006FF008021A61042323762368DB6913F08E
:102CD000030F4ED02046FFF7B6FF0023237623686C
:102CE0001A6912F0100F12D0DA6812F0100F0ED01D
:102CF0006FF010021A61082323762368DB6913F44E
:102D0000407F3DD02046FFF79EFF002323762368B7
:102D10001A6912F0010F03D0DA6812F0010F36D1F0
:102D200023681A6912F0800F03D0DA6812F0800F5E
:102D300034D123681A6912F0400F03D0DA6812F018
:102D4000400F32D123681A6912F0200F03D0DA68DD
:102D500012F0200F30D110BDFFF774FF2046FFF7AF
:102D600073FF8AE72046FFF76DFF2046FFF76CFFF1
:102D70009BE72046FFF766FF2046FFF765FFACE7BD
:102D80002046FFF75FFF2046FFF75EFFBDE76FF0CD
:102D900001021A612046FFF754FFC1E76FF080027D
:102DA0001A612046FEF753FEC3E76FF040021A6136
:102DB0002046FFF74AFFC5E76FF020021A61204660
:102DC000FEF744FEC7E7000003682E4A904212D087
:102DD000B0F1804F0FD0A2F57C4290420BD002F5AB
:102DE0008062904207D002F58062904203D002F5E3
:102DF0007842904203D123F070034A681343214A7A
:102E000090422AD0B0F1804F27D0A2F57C42904268
:102E100023D002F5806290421FD002F5806290427A
:102E20001BD002F57842904217D002F570529042C2
:102E300013D002F5806290420FD002F5806290427A
:102E40000BD0A2F59832904207D002F580629042F2
:102E500003D002F58062904203D123F44073CA6824
:102E6000134303608B68C3620B688362054B98420F
:102E700003D003F58063984201D10B6903630123FA
:102E80004361704700000140A8B110B5044690F8B6
:102E900039305BB1022384F83930211D2068FFF7F7
:102EA00093FF012384F83930002010BD80F83830BA
:102EB00000F06AFAEEE701207047A8B110B50446A9
:102EC00090F839305BB1022384F83930211D206835
:102ED000FFF77AFF012384F83930002010BD80F815
:102EE000383000F0E3F9EEE701207047002847D0C2
:102EF000F8B505460C4690F83930002B3BD002233C
:102F000085F83930294651F8042B936823F00703DC
:102F100093602868FFF758FF29688A688E690F6AEE
:102F20002068104326F4407626F00306A268A369C1
:102F300042EA0323334323F47C4323F0FC03E66893
:102F4000E26946EA02261E43226A1303226943EA23
:102F50000213334327F0AA076268646942EA041245
:102F60003A43886029688B612B681A62012385F8CF
:102F700039300020F8BD80F8383000F0BFF9BEE7E6
:102F80000120704730B4036A23F010030362036A20
:102F90004468826922F4E6420D6842EA052223F081
:102FA00020038D6843EA05130E4DA84203D005F5B2
:102FB0008065A8420ED123F08003CD6843EA051353
:102FC00023F0400324F440644D6944EA85048D698C
:102FD00044EA8504446082614A688263036230BCCB
:102FE000704700BF0000014038B590F83830012B21
:102FF00066D00D460446012380F83830022380F85D
:1030000039300C2A1AD8DFE802F0071919192019EB
:1030100019193419191947000068FFF7C1FC226813
:10302000936943F0080393612268936923F00403D2
:1030300093612268936929690B439361012384F8A2
:103040003930002084F8380038BD0068FFF79AFF57
:103050002268936943F4006393612268936923F4BF
:103060008063936122689369296943EA012393612C
:10307000E4E70068FFF7C2FC2268D36943F0080365
:10308000D3612268D36923F00403D3612268D36932
:1030900029690B43D361D1E70068FFF7DFFC2268A1
:1030A000D36943F40063D3612268D36923F4806356
:1030B000D3612268D369296943EA0123D361BDE75B
:1030C0000220C1E710B4012303FA01F4036A23EAE2
:1030D00004030362036A8A40134303625DF8044BEE
:1030E0007047000010B5044601220068FFF7EAFFB0
:1030F0002368094A934203D002F58062934203D1C8
:103100005A6C42F400425A642268136843F0010387
:103110001360002010BD00BF0000014010B5044640
:1031200061B1042916D0012200210068FFF7CAFF0F
:10313000012204212068FFF7C5FF04E001220021DD
:103140000068FFF7BFFF2268136843F001031360B4
:10315000002010BD012204210068FFF7B3FFF2E751
:1031600000B58DB01648174B0360002343608360A1
:103170004FF6FF72C260036103220392049301229F
:10318000059206930793089309920A930B9303A958
:10319000FFF7ACFE50B900230193029301A9084840
:1031A000FEF7FFFB38B90DB05DF804FBAC21064813
:1031B000FEF740F9EFE7B3210348FEF73BF9F2E7EA
:1031C000E0030020000400401868000800B58DB03E
:1031D0001648174B03600023436083604FF6FF726D
:1031E000C2600361032203920493012205920693B5
:1031F0000793089309920A930B9303A9FFF776FEAE
:1032000050B900230193029301A90848FEF7C9FBB6
:1032100038B90DB05DF804FBCD210648FEF70AF978
:10322000EFE7D4210348FEF705F9F2E76003002039
:10323000000800401868000800B587B01848194B0E
:103240000360092343600023836040F2E732C260D9
:103250000361FFF719FE98B906A94FF4805341F8AE
:10326000103D0F48FFF769FC78B9002300930193E4
:1032700069460B48FEF795FB60B907B05DF804FBA3
:10328000E5210948FEF7D6F8E6E7EB210648FEF708
:10329000D1F8EAE7F2210448FEF7CCF8EDE700BFE9
:1032A000A4030020000C00401868000882B00368E6
:1032B000104A934204D0B3F1804F0ED002B0704751
:1032C000002300930C4B5A6C42F001025A645B6C71
:1032D00003F001030093009BF0E700230193064BEA
:1032E0001A6C42F001021A641B6C03F00103019393
:1032F000019BE3E7000001400038024000B589B0BF
:1033000003681D4A934205D01C4A93421BD009B062
:103310005DF804FB0023019302F50D32116C41F0BE
:1033200002011164126C02F002020192019AC022A1
:1033300003920222049205930693079203A9104870
:10334000FDF79CFEE3E70023029302F50C32116CBB
:1033500041F004011164126C02F004020292029A1C
:10336000C02203920222049205930693079203A9B6
:103370000448FDF783FECAE700040040000800404F
:10338000000802400004024002680E4B9A4200D03E
:10339000704700B583B00021019103F50B331A6C1F
:1033A00042F008021A641B6C03F008030193019BAE
:1033B0000A463220FDF7AEFF3220FDF7DFFF03B0F3
:1033C0005DF804FB000C004000B587B00368134AA9
:1033D000934205D0B3F1804F11D007B05DF804FBE4
:1033E0004FF4807301930223029300230393049309
:1033F0000123059301A90A48FDF740FEEDE74FF4CC
:103400004063019302230293002303930493012357
:10341000059301A90348FDF731FEDEE700000140F6
:10342000000002400004024000B591B02748284B3C
:103430000360092343600023836040F2E732C260E7
:1034400003614361FFF739FD00282AD100230E9361
:103450000F930EA91D48FEF7A4FA38BB602307930B
:103460000022089209920A920B920C920D9207A9DF
:103470001648FFF7B9FDF0B90023009301930293BA
:10348000039304934FF400520592069369460F4844
:10349000FEF7B0FAA0B90D48FFF796FF11B05DF83E
:1034A00004FB49210B48FDF7C5FFCFE75021094830
:1034B000FDF7C0FFD2E75C210648FDF7BBFFDBE765
:1034C00068210448FDF7B6FFE5E700BF3804002097
:1034D000000001401868000800B58BB021484FF08B
:1034E00080430360042343600023836040F2E7329B
:1034F000C2600361FFF7E1FCF8B900230893099368
:1035000008A91848FEF74DFAE0B96023019300239B
:10351000029303930593082201A91248FFF764FD63
:10352000A8B90C2201A90F48FFF75EFDA0B90D480C
:10353000FFF74AFF0BB05DF804FB7B210A48FDF75B
:1035400079FFDAE782210848FDF774FFDDE78B2178
:103550000548FDF76FFFE4E790210348FDF76AFF98
:10356000E5E700BF980400201868000810B50C4675
:103570001A4B1B4A1A60586000229A6040F2E731E9
:10358000D9601A615A611846FFF797FC98B9154936
:1035900060230B604C6000228A60CA600A614A6145
:1035A0008A610E48FFF720FD58B900210B48FFF74C
:1035B00099FD60B910BD4FF4F8710B48FDF73AFF63
:1035C000E5E740F2FB110848FDF734FFEDE74FF463
:1035D00000710548FDF72EFFECE700BF380400201E
:1035E000000001401C0400201868000808B51821DC
:1035F0000348FFF793FD18210248FFF78FFD08BD30
:10360000E00300206003002010B4154C606A00B293
:10361000144B596A09B2002262625A62124B586115
:10362000996142185208DA611C6A14441C629C6851
:1036300020449860D8680144D9601969114419611F
:10364000596A11445962196811441960996A114400
:10365000996259680A445A605DF8044B704700BF8C
:10366000000400400008004004020020F8B50546B0
:103670000F4616461C463BE02CB1FDF721FE069B8B
:10368000C01AA04234D32A68536823F0E003536081
:103690006B68B3F5827F0BD0AB6AB3F5005F14D0D3
:1036A000012385F85130002385F85030032027E0AE
:1036B000AB68B3F5004F02D0B3F5806FECD12A6848
:1036C000136823F040031360E6E72A68136823F4C5
:1036D00000531B041B0C13602A68136843F4005347
:1036E0001360DDE70123B34209D0B4F1FF3FC3D13A
:1036F0002B689B6837EA0303F4D00023F3E700202C
:10370000F8BD10B582B0044600920B46002280211D
:10371000FFF7ACFF034610B9184602B010BD636D49
:1037200043F0200363650323F6E700283BD010B580
:1037300004460023836290F85130002B2ED00223E0
:1037400084F851302268136823F0400313606368E3
:10375000A2681343E2681343226913436269134367
:10376000A26902F400721343E2691343226A13430D
:10377000A16A22680B431360638B03F00403616A40
:1037800022680B4353602268D36923F40063D3613A
:1037900000206065012384F8513010BD80F850305E
:1037A00000F0CAFACBE7012070472DE9F04184B060
:1037B0001E4690F85030012B00F0C88004460D469C
:1037C0009046012380F85030FDF77AFD074694F8C3
:1037D0005130DBB2012B0AD00223012284F85120A0
:1037E000002284F85020184604B0BDE8F081002D76
:1037F00000F0A480B8F1000F00F0A280032384F849
:103800005130002363652563A4F83480A4F8368022
:10381000A363A387E38763642364A368B3F5004FBE
:103820001BD023681A6812F0400F03D11A6842F0C7
:1038300040021A60E368B3F5006F14D063681BB1EF
:10384000E38E9BB2012B3ED1236815F8012B1A732E
:10385000E38E013B9BB2E38635E02268136843F4B4
:1038600080431360DDE763681BB1E38E9BB2012BDD
:103870000DD1236835F8022BDA60E38E013B9BB251
:10388000E38604E0002E5DD0B6F1FF3F0FD1E38E5A
:103890009BB27BB323689A6812F0020FF2D035F81E
:1038A000022BDA60E38E013B9BB2E386EFE7FDF784
:1038B00007FDC01BB042EAD303238EE7002E43D09E
:1038C000B6F1FF3F0FD1E38E9BB29BB123689A689C
:1038D00012F0020FF2D015F8012B1A73E38E013BA0
:1038E0009BB2E386EFE7FDF7EBFCC01BB042EAD3E7
:1038F000032372E700973346012202212046FFF797
:10390000B5FE08B1032368E73A4631462046FFF783
:10391000F8FE034618B12023636501235DE7A26822
:1039200032B903922268D168039192680392039A94
:10393000626D002A3FF451AF01234EE701234CE7AB
:1039400001234AE7032348E7032346E702234AE724
:103950002DE9F04385B099460C9D90F85030012B2D
:1039600000F0108104460F461646012380F85030BF
:10397000FDF7A6FC804694F85130DBB26268012B5B
:1039800015D0B2F5827F0AD00223012284F851209B
:10399000002284F85020184605B0BDE8F083A268E4
:1039A000002A40F0E780042B01D00223EDE7002F2E
:1039B00000F0E280002E00F0E180B9F1000F00F08D
:1039C000DF8094F85130DBB2012B2BD000236365EC
:1039D000A663A4F83E90A4F83C902763A4F8369020
:1039E000A4F834902364636423681A6812F0400FCB
:1039F00003D11A6842F040021A60E368B3F5006F21
:103A000014D063681BB1E38E9BB2012B07D12368EE
:103A100017F8012B1A73E38E013B9BB2E3864FF03C
:103A2000010961E0052384F85130CFE763681BB1D9
:103A3000E38E9BB2012B07D1236837F8022BDA60A3
:103A4000E38E013B9BB2E3864FF0010913E0E38F65
:103A50009BB26BB123689A6812F0010F08D0DB6843
:103A600026F8023BE38F013B9BB2E3874FF001094D
:103A7000B5F1FF3F1CD1E38E9BB21BB9E38F9BB224
:103A8000002B55D0B9F1000FE1D0E38E9BB2002B93
:103A9000DDD023689A6812F0020FD8D037F8022BD5
:103AA000DA60E38E013B9BB2E3864FF00009CEE77C
:103AB000FDF706FCA0EB0800A842DCD3032364E773
:103AC000E38F9BB26BB123689A6812F0010F08D0A4
:103AD000DB683370E38F013B9BB2E38701364FF025
:103AE0000109B5F1FF3F1BD1E38E9BB213B9E38F00
:103AF0009BB2EBB1B9F1000FE2D0E38E9BB2002B89
:103B0000DED023689A6812F0020FD9D03A781A737F
:103B1000E38E013B9BB2E38601374FF00009CFE70C
:103B2000FDF7CEFBA0EB0800A842DDD303232CE772
:103B3000CDF800802B46012202212046FFF796FD9A
:103B400008B1032321E7424629462046FFF7D9FD65
:103B5000034618B120236365012316E7A268002AF3
:103B60007FF413AF03922268D168039192680392A5
:103B7000039A0AE7022308E7012306E7012304E783
:103B8000012302E7022306E72DE9F04182B0044653
:103B90000D4617461E464368B3F5827F19D094F848
:103BA0005030012B00F0A280012384F85030FDF743
:103BB00087FB804694F85130DBB2012B15D00220F0
:103BC000012384F85130002384F8503002B0BDE85E
:103BD000F0818368002BE2D1042380F851300096F5
:103BE00013460A46FFF7B4FEF0E7002D74D0002F0D
:103BF00074D0042384F8513000236365A563A7873C
:103C0000E7872363A386E38623646364A368B3F52D
:103C1000004F0BD023681A6812F0400F03D11A68C6
:103C200042F040021A60E3685BB128E02268136842
:103C300023F480431360EDE7002E51D0B6F1FF3F2F
:103C400010D1E38F9BB2002B31D023689A6812F019
:103C5000010FF1D01B7B05F8013BE38F013B9BB2C9
:103C6000E387EEE7FDF72CFBA0EB0800B042E8D3BA
:103C70000320A5E7002E35D0B6F1FF3F0FD1E38F2B
:103C80009BB2A3B123689A6812F0010FF2D0DB68EF
:103C900025F8023BE38F013B9BB2E387EFE7FDF79B
:103CA0000FFBA0EB0800B042E9D3032088E763686C
:103CB000B3F5827F03D0636DB3B9002080E7A368BA
:103CC000B3F5004F02D0B3F5806FF4D122681368CA
:103CD00023F040031360EEE7012071E701206FE756
:103CE00003206DE703206BE7012069E702206DE701
:103CF00008B50E480E4B03604FF4827343600023F7
:103D00008360C360036143614FF400728261C361E9
:103D10000362436283620A23C362FFF706FD00B9B0
:103D200008BD45210348FDF785FBF9E7D4040020D1
:103D300000380040246800080268124B9A4200D004
:103D4000704700B587B00021009103F500331A6C6D
:103D500042F480421A641B6C03F480430093009B7E
:103D60004FF46043019302230293039103230493CE
:103D70000523059301A90448FDF780F907B05DF814
:103D800004FB00BF003800400004024030B583B09F
:103D90000446114D00224FF480512846FDF752FA97
:103DA00064F07F0402A901F8014D0C4C6423012248
:103DB0002046FFF7FAFC642301220DF1060120469C
:103DC000FFF7E2FE01224FF480512846FDF73AFA50
:103DD0009DF8060003B030BD00040240D40400206A
:103DE00030B583B08DF807008DF806100E4C002218
:103DF0004FF480512046FDF725FA0C4D6423012233
:103E00000DF107012846FFF7D0FC642301220DF1D4
:103E100006012846FFF7C9FC01224FF480512046D5
:103E2000FDF710FA03B030BD00040240D4040020B6
:103E300010B50F20FFF7AAFF04460146084800F01E
:103E40000FFDD42C03D000210120FEF78FFC0F21A1
:103E50002020FFF7C5FF20212320FFF7C1FF10BD61
:103E60003068000870B50D461646002404E0AFF334
:103E70000080287001340135B442F8DB304670BD53
:103E800070B51646002405E04D1C0878FDF7AEFA23
:103E900001342946B442F7DB304670BD08B503460D
:103EA0000B4A126842B10A4A106803446A469342B8
:103EB00006D8074A136008BD054A06491160F2E7B3
:103EC00000F040F80C2303604FF0FF30F3E700BF31
:103ED000F0010020300500204FF0FF3070474FF414
:103EE00000534B600020704701207047002070474E
:103EF000DFF834D0002103E00C4B5B584350043111
:103F00000B480C4B42189A42F6D30B4A02E00023AE
:103F100042F8043B094B9A42F9D3FDF799FD00F0B2
:103F200017F8FDF7E9FA704700000220086B000857
:103F300000000020D4010020D40100203005002022
:103F4000FEE70000014B1868704700BF0400002026
:103F500070B50D4E0D4CA41BA4100025A54209D12F
:103F60000B4E0C4C02F0FCFBA41BA4100025A54238
:103F700005D170BD56F8253098470135EEE756F863
:103F8000253098470135F2E7006B0008006B000808
:103F9000006B0008046B000802440346934200D102
:103FA000704703F8011BF9E72DE9FF4755EC104B6B
:103FB0000D9FDDF830A0002D0E4691461946B8BF82
:103FC00022462B4627F02007BBBF05F100431D46C4
:103FD00000232D23B8BF1446462F0B7004D0452F65
:103FE00000D10136022100E0032103AB019302ABB3
:103FF00000933246534645EC104B00F08DFD472FA1
:10400000804602D119F0010F26D0462F08EB060991
:1040100011D198F80030302B0AD10022002320461D
:104020002946FCF751FD18B9C6F10106CAF800602F
:10403000DAF8003099440022002320462946FCF794
:1040400043FD38B93022039B4B4505D2591C0391DF
:104050001A70F8E7CDF80C90039B0E9AA3EB0803B7
:104060004046136004B0BDE8F087F7B50029044668
:10407000BABF49422D232B23092904F8022B437090
:1040800020DD0DF107031F460A2691FBF6F506FB1E
:1040900015113031092D03F8011C03F1FF322946B7
:1040A00009DC3031023B02F8011CBB42224604D33A
:1040B000101A03B0F0BD1346E7E713F8012B04F81C
:1040C000012BF2E7302319448370021DC170EFE722
:1040D0002DE9F04F8DB00C46DDF8588016461F468E
:1040E000054601F04BFC036804931846FCF770F892
:1040F00000230A93D8F800300590073323F0070314
:1041000003F1080294F818A0D4F800B0C8F8002011
:10411000D3E90023C4E91223D4E9128929F000432A
:104120000793CDF818804FF0FF32A74BDDE9060169
:10413000FCF7FCFC70BB4FF0FF32A34BDDE906013E
:10414000FCF7D6FC30BB0022002340464946FCF772
:10415000C5FC10B12D2384F843309C4A9C4BBAF126
:10416000470F8CBF9046984603232BF0040223612F
:1041700022604FF00009009733460BAA21462846DB
:1041800000F0E6F9013040F08D804FF0FF300DB0C7
:10419000BDE8F08F42464B4640464946FCF7C6FC18
:1041A00010B18C4A8C4BDAE761684B1C4BF480628F
:1041B0000AA83ED1062363600023CDE9020309ABC0
:1041C000009349EC108B0DF123032260CDF804A07D
:1041D00061682846FFF7E8FE0AF0DF03472B8046B8
:1041E00009D1099BD81C02DB6268934247DDAAF122
:1041F000020A5FFA8AFABAF1650F099924D80139DF
:10420000524604F150000991FFF72FFF0A9A131844
:10421000012A8146236102DC2268D10701D50133DE
:1042200023619DF82330002BA5D02D2384F8433043
:10423000A1E7BAF1670F00F07781BAF1470FBBD160
:104240000029B9D10123B6E7BAF1660F19D10029C7
:1042500063680CDD216113B92268D20702D50133EE
:104260000B442361099BA3654FF00009D9E713B9FB
:104270002268D00701D50233F3E70123F1E74FF0BD
:10428000670ADDE90932934205DB22682361D10721
:10429000E8D50133E5E7002BD4BFC3F102030123C6
:1042A0001344DEE723685A0507D4236942463146A2
:1042B0002846B84701302BD167E7BAF1650F40F2C5
:1042C000DC8000220023D4E91201FCF7FDFB00286A
:1042D00033D00123414A31462846B84701303FF4E4
:1042E00054AFDDE909239A4202DB2368D8070FD5D2
:1042F000DDE9042331462846B84701303FF445AF95
:104300004FF0000804F11A090A9B013B434509DC00
:1043100023689B0700F10381E0680B9B9842B8BFBC
:10432000184634E701234A4631462846B84701304B
:104330003FF42BAF08F10108E6E7099B002B2BDCCB
:104340000123264A31462846B84701303FF41DAFC5
:10435000099B23B90A9B13B92368D907D8D5DDE98E
:10436000042331462846B84701303FF40EAF4FF0E2
:10437000000904F11A0A099B5B424B4501DC0A9BC8
:1043800094E70123524631462846B84701303FF4AE
:10439000FCAE09F10109EEE70A9AA36D9A42A8BFA3
:1043A0001A46002A914607DD134631464246284602
:1043B000B84701303FF4E9AE04F11A034FF0000BA7
:1043C00029EAE979069315E0FFFFEF7F48680008C6
:1043D00044680008506800084C68000854680008E9
:1043E0000123069A31462846B84701303FF4CDAE46
:1043F0000BF1010BD4F858A0AAEB09035B45EFDCE5
:10440000DDE909239A42D04415DB2368DA0712D488
:104410000A9B0999A3EB0A02A3EB010A9245A8BFE4
:104420009246BAF1000F0EDC4FF000082AEAEA7A51
:1044300004F11A0919E0DDE9042331462846B8479A
:104440000130E5D1A1E65346424631462846B847F9
:104450000130E9D199E601234A4631462846B8475A
:1044600001303FF492AE08F10108DDE909239B1AFF
:10447000A3EB0A034345EEDC4AE70A9A012A01DC72
:10448000DB073AD50123424631462846B84701307A
:104490003FF47BAEDDE9042331462846B8470130BE
:1044A00008F101083FF471AE0A9B002203F1FF3AC4
:1044B000D4E912010023FCF707FBC8B95346424672
:1044C00031462846B84701300ED15EE601235246F8
:1044D00031462846B84701303FF457AE08F101088D
:1044E0000A9B013B4345F1DC4B4604F15002DEE6FA
:1044F0004FF0000804F11A0AF2E70123DFE7012375
:104500004A4631462846B84701303FF43EAE08F1EE
:104510000108E3680B9A9B1A4345F0DCFCE64FF078
:10452000000804F11909F4E700293FF48BAE0023D9
:10453000CDE9020309AB009349EC108B2260CDF862
:1045400004A00DF123032846FFF72EFD804648E620
:104550002DE9F04791461F468A680B69DDF82080F7
:104560009342B8BF1346C9F8003091F8432006467D
:104570000C4612B10133C9F800302368990642BFD6
:10458000D9F800300233C9F80030256815F0060567
:1045900007D104F1190AE368D9F800209B1AAB424D
:1045A00028DC94F843302268003318BF01239206B8
:1045B0002DD404F1430239463046C047013020D0A3
:1045C0002368E568D9F8002003F00603042B08BF30
:1045D000AD1AA36822690CBF25EAE5750025934250
:1045E000C4BF9B1AED184FF000091A344D451AD17B
:1045F000002008E00123524639463046C0470130CA
:1046000003D14FF0FF30BDE8F0870135C3E7E11873
:104610005A1C302081F84300224494F8451082F857
:1046200043100233C5E70123224639463046C047CE
:104630000130E6D009F10109D8E700002DE9F04387
:1046400001F1430C0C46097E85B06E2917460646DB
:1046500098460C9A00F0B38022D8632936D00AD845
:10466000002900F0B980582900F0838004F1420548
:1046700084F8421032E0642901D06929F6D120681B
:104680001368050603F104012AD51B681160002B8D
:1046900003DA2D225B4284F843206F480A2239E076
:1046A000732900F09D8008D86F2920D07029DDD1B2
:1046B000236843F02003236003E0752917D078298D
:1046C000D4D1782384F84530644855E01368191D27
:1046D0001B68116004F1420584F8423001238CE02C
:1046E0001B68116010F0400F18BF1BB2CFE71368B2
:1046F0002568181D1060280601D51B6802E06806B1
:10470000FBD51B8854486F2914BF0A2208220021B8
:1047100084F843106568A560002DC0F2958021687B
:1047200021F004012160002B3DD1002D40F08E804E
:104730006546082A0BD12368DB0708D52369626820
:104740009A42DEBF302305F8013C05F1FF35ACEBA2
:1047500005032361CDF800803B4603AA214630467D
:10476000FFF7F6FE01304DD14FF0FF3005B0BDE848
:10477000F083394884F84510136821681D1D1B68B3
:1047800015600A060BD5CA0744BF41F0200121601D
:104790001BB9226822F0200222601022B7E74D06E2
:1047A00048BF9BB2EFE76546B3FBF2F102FB113362
:1047B000C35C05F8013D0B460029F5D1B9E7136844
:1047C00025686169181D106028061B6801D51960ED
:1047D00002E06A06FBD51980002323616546B9E72C
:1047E0001368191D11601D68626800212846FBF7D7
:1047F000F7FC08B1401B606063682361002384F804
:104800004330A7E723692A4639463046C04701307E
:10481000AAD023689B0713D4E068039B9842B8BFD3
:104820001846A3E701234A4639463046C0470130BF
:104830009AD00135E368039A9B1AAB42F2DCEBE7AE
:10484000002504F11909F5E7002BACD1037884F8B1
:10485000423004F142056CE75668000867680008BA
:104860000FB40A4B13B51C6824B1A36913B92046D1
:1048700000F0FAFF05AB049AA1680193204601F00D
:10488000BDFC02B0BDE8104004B070470400002039
:1048900000294FF480630CBF0222002200F000B810
:1048A0002DE9F7431D46514B1E6804460F469046BE
:1048B00026B1B36913B9304600F0D6FF4C4B9C4289
:1048C00052D17468B8F1020F06D0B8F1010F00F2AE
:1048D0008980002DC0F286802146304600F05AFFC4
:1048E000616B41B104F14403994202D0304601F0BA
:1048F000B3FB002363630023A3616360A3891B06EA
:1049000003D52169304601F0A7FBA38923F44A634C
:1049100023F00303B8F1020FA3815DD001AB6A4617
:104920002146304601F038F8A3891843A0812DBBF9
:10493000009D284601F094F8074600284ED1DDF886
:104940000090A9453CD14FF0FF30A38943F002030A
:10495000A3810023A36004F14703236023610123A3
:10496000636103B0BDE8F083224B9C4201D1B4687F
:10497000A8E7214B9C4208BFF468A3E7002FD8D0DA
:10498000B36913B9304600F06FFFB8F1010F08BFEB
:10499000A389276004BF43F00103A381A38913F017
:1049A0000800C4E904751BD013F0010018BF6D4264
:1049B0004FF000031DBFA360A5611846A560D0E7B6
:1049C000484601F04DF807460028BCD0A38943F0C3
:1049D0008003A3814D46D3E70020B6E7A946F5E75B
:1049E000A060BEE74FF0FF30BBE700BF040000202F
:1049F000A8680008C8680008886800082DE9F74F13
:104A000003690C69A3428046C0F28280013C01F137
:104A100014074FEA840C00F1140657F8245056F896
:104A2000240006EB0C03013507EB0C090193B0FBE6
:104A3000F5F595B34FF0000A3846B646D34650F820
:104A4000042B93B205FB03A34FEA134A9BB2ABEBD3
:104A50000303120CDEF800B005FB02A213FA8BF37D
:104A60004FEA124A1FFA82FBDEF80020CBEB12421B
:104A700002EB23429BB243EA024381454FEA224BB9
:104A80004EF8043BDBD256F80C3033B9019B043BA3
:104A90009E421A4630D3C8F81040404601F008FA4A
:104AA000002825DB013530464FF0000C57F8042B69
:104AB000D0F800E093B2ACEB0303120C13FA8EF3C0
:104AC000C2EB1E4202EB23429BB243EA0243B945CA
:104AD0004FEA224C40F8043BE8D256F8242006EB7B
:104AE00084032AB9043B9E421A460BD3C8F81040EF
:104AF000284603B0BDE8F08F1268043B002ACAD1F3
:104B0000013CC5E71268043B002AEFD1013CEAE70B
:104B10000020EEE7000000002DE9F04F57EC106B8D
:104B200097B0456A069104460B921293DDF8808097
:104B3000CDE900673DB9102000F092FF6062C0E946
:104B400001550560C560636A196851B15A684A60C9
:104B5000012393408B60204600F0C9FF636A002266
:104B60001A603B1EBBBF23F00043019300230122C8
:104B7000ACBFC8F80030C8F80020AF4BDDF80480A7
:104B800033EA080314D1129A42F20F731360009BA8
:104B900023B9C8F31300002800F04285219BDFF8F9
:104BA000ACB2002B00F044850BF1030300F03EBDD6
:104BB000DDE900670022002330463946FBF784FF19
:104BC000814668B1129A01231360219B002B00F0EB
:104BD00024859A4B219A03F1FF3B136000F028BD16
:104BE00014AA15A947EC106B204601F0D8F9C8F3B8
:104BF0000A550490002D7CD0C7F3130343F07F5B6C
:104C0000B2464BF4401BA5F2FF35CDF84C90002284
:104C10008B4B50465946FBF737FB81A3D3E9002362
:104C2000FBF7EAFC80A3D3E90023FBF72FFB064642
:104C300028460F46FBF776FC7DA3D3E90023FBF75C
:104C4000DBFC02460B4630463946FBF71FFB0646A7
:104C50000F46FBF781FF002282460023304639468B
:104C6000FBF73CFF48B15046FBF75CFC32463B4645
:104C7000FBF72AFF08B90AF1FF3ABAF1160F59D823
:104C8000704901EBCA01DDE90023D1E90001FBF71E
:104C900043FF002850D00AF1FF3A00230F93149BE2
:104CA0005D1BB5F1010849BFC5F101030023059360
:104CB0004FF0000858BF0593BAF1000F3EDB002308
:104CC000D044CDF838A00793069B092B00F29080C2
:104CD000052BC4BF043B0693069BA3F10203CCBF84
:104CE00000250125032B00F28F80DFE803F07D7F94
:104CF0003171DDE914531D4405F23240202813DDE3
:104D0000C0F14000009B08FA00F805F2124023FAB7
:104D100000F048EA0000FBF7F5FB01238246A1F111
:104D2000F87B013D139372E7009BC0F1200003FA6A
:104D300000F0F0E70123B1E70F90B0E7059BA3EB8C
:104D40000A030593CAF10003079300230E93BBE700
:104D500001230A930B9B002B59DD02939946666A47
:104D600000227260042202F114009842716853D943
:104D7000204600F088FE636A3060B9F10E0FD3F868
:104D800000B000F2E680002D00F0E3809DED007B96
:104D9000BAF1000F8DED107B74DD2A4A0AF00F0383
:104DA00002EBC30393ED007B4FEA2A16F0068DED6C
:104DB000087B65D5244BDDE91001D3E90823FBF717
:104DC00045FDCDE9000106F00F0603251E4F4CE01E
:104DD00001230A930B9B534403F1010902934B46B1
:104DE000012BB8BF0123BAE70023B2E70023F0E7A5
:104DF0000125002306930A954FF0FF33029399464D
:104E0000002212230B92AAE701230A93F4E701235D
:104E1000029399461A46F5E7013171605200A2E704
:104E200061436F63A787D23FB3C8608B288AC63FB0
:104E3000FB799F501344D33F0000F07F5568000872
:104E40000000F83F10690008E86800088168000861
:104E5000F10708D5DDE90801D7E90023FBF7CCFB12
:104E6000CDE90801013576100837002EF0D1DDE9D3
:104E70000823DDE90001FBF7E9FCCDE900011AE0B8
:104E80000225A3E700F0A080CAF100069F4BA04FC7
:104E900006F00F0203EBC203D3E90023DDE91001A2
:104EA000FBF7AAFBCDE90001361100230225002EF5
:104EB0007FD1002BE1D10F9B002B00F08780DDE933
:104EC00000670022934B30463946FBF707FE002867
:104ED0007CD0B9F1000F79D0029B002B35DD0AF1AF
:104EE000FF330893394600228B4B3046FBF784FB97
:104EF000CDE90001029F01352846FBF713FBDDE9F0
:104F00000023FBF779FB0022844BFBF7BFF9054632
:104F1000A1F15076002F5DD10022814BDDE9000127
:104F2000FBF7B2F92A463346CDE90001FBF7F4FD61
:104F3000002840F088822A4606F10043DDE900019E
:104F4000FBF7CCFD002840F07C82DDE91023CDE9A1
:104F50000023159B002BC0F25081BAF10E0F00F315
:104F60004C816A4B03EBCA0393ED007B0B9B002B38
:104F70008DED027B80F2D880B9F1000F00F3D48070
:104F800040F05E820022664B51EC170BFBF734FBBE
:104F9000DDE90023FBF7B6FD4F464E46002840F002
:104FA000348231230BF101058BF800300AF1010A3C
:104FB0002FE2F20705D5D7E90023FBF71DFB0135EA
:104FC00001237610083772E7022574E7CDF820A098
:104FD0004F4691E74D4B03EBC70353E902010A9B90
:104FE000002B47D002460B4600204E49FBF72EFC13
:104FF0002A463346FBF748F9CDE90C015D46DDE969
:105000000001FBF7A9FD0646FBF78CFA02460B46AA
:10501000DDE90001FBF738F9303605F8016BDDE911
:105020000C23CDE90001FBF759FD002863D1DDE930
:10503000002300203749FBF727F9DDE90C23FBF7B4
:105040004DFD002840F0B780A5EB0B039F427FF792
:105050007CAF0022304BDDE90C01FBF7CDFA0022DA
:10506000CDE90C012C4BDDE90001FBF7C5FACDE9D8
:105070000001C4E72A463346FBF7BEFACDE90C012E
:105080000BEB07055E46DDE90001FBF765FD074612
:10509000FBF748FA303702460B46DDE90001FBF723
:1050A000F3F806F8017BAE42CDE900014FF00002B3
:1050B00026D11C4BDDE90C01FBF7E8F802460B4654
:1050C000DDE90001FBF728FD002874D1DDE90C23A0
:1050D00000201449FBF7D8F802460B46DDE9000131
:1050E000FBF7FCFC00283FF430AF15F8013C302BF7
:1050F00005F1FF3202D0DDF820A04AE01546F4E7C2
:10510000054BFBF779FACDE90001BCE7106900080F
:10511000E86800080000F03F0000244000001C4048
:10512000000014400000E03FDDE900675D46DDE976
:10513000022330463946FBF789FBFBF70DFD80461D
:10514000FBF7F0F9DDE90223FBF756FA02460B46BE
:105150003046394608F13006FBF796F805F8016B42
:10516000A5EB0B06B14502460B4639D1FBF78EF88D
:10517000DDE9022306460F46FBF7CEFCC8B9DDE9A0
:10518000022330463946FBF79FFC10B118F0010F9F
:105190000FD10499204600F0AAFC0023129A2B702C
:1051A0000AF101031360219B002B00F041821D6076
:1051B0003EE2CDF820A015F8012C392A05F1FF3385
:1051C00008D19B450AD1089B0133089330238BF803
:1051D00000305B461A7801321A708CE71D46EAE708
:1051E00000229B4BFBF708FA0022002306460F46DD
:1051F000FBF76AFC00289AD0CBE70A9A002A00F055
:105200008B80069A012A6EDC139A002A67D003F27B
:105210003343079F059D059A01211A4420460592B4
:10522000984400F004FD0646002D0CDDB8F1000F97
:1052300009DD4545059A2B46A8BF4346D21A05927B
:10524000ED1AA8EB0308079BEBB10A9B002B67D074
:105250008FB131463A46204600F088FD049A014657
:105260000646204600F0ECFC04990890204600F029
:105270003EFC089B0493079BDA1B04D0049920464C
:1052800000F074FD04900121204600F0D0FC0E9B3C
:105290000746002B00F0D0811A460146204600F058
:1052A00065FD069B012B074640DC009B002B39D196
:1052B000019BC3F31303002B36D1019B23F0004362
:1052C0001B0D1B052BB1059B0133059308F101084C
:1052D000012307930E9B002B2AD1012030E0149B61
:1052E000C3F1360395E7079B09F1FF37BB42BFBF08
:1052F000079B0797FA1A0E9BBBBF9B180E93DF1BE9
:105300000027B9F1000FB5BF059B059DA3EB09056B
:105310004B46B8BF00237EE7079F059D0A9E83E7A3
:10532000079AABE70023D4E7009BD2E7002307935B
:105330003B6907EB8303186900F02BFCC0F12000E8
:10534000404410F01F0047D0C0F12003042B3BDD88
:10535000059BC0F11C000344059305448044059B54
:10536000002B05DD1A460499204600F04DFD0490FF
:10537000B8F1000F05DD39464246204600F044FDF5
:1053800007460F9B53B33946049800F091FD00285F
:1053900024DA00230A220499204600F0BFFB0A9B6E
:1053A00004900AF1FF3A002B00F04D8100233146B2
:1053B0000A22204600F0B2FB029B002B06464FDC7F
:1053C000069B022B4CDD11E0C9D0059A1C331A4410
:1053D00005921D449844C2E70346F6E7B9F1000F71
:1053E00038DC069B022B35DDCDF80890029B63B9B3
:1053F00039460522204600F091FB014607460498F5
:1054000000F056FD00283FF7CCAD0B9B5D466FEAE0
:10541000030A4FF000093946204600F068FB002ED1
:105420003FF4B7AEB9F1000F05D0B14503D04946FE
:10543000204600F05CFB3146204600F058FBA8E611
:1054400000273E46E1E7DDF820A03E46A9E500BF83
:10545000000024400A9BCDF80890002B00F0FA8051
:10546000002D05DD31462A46204600F0CDFC0646DB
:10547000079B002B4CD07168204600F004FB32697A
:1054800002320546920006F10C010C3000F0F0FAF1
:1054900001222946204600F0B7FC009BCDF814B04D
:1054A00003F00103B1460793064639460498FFF717
:1054B000A5FA4946054600F13008049800F0F8FCCA
:1054C000324600903946204600F00CFDC368024683
:1054D00003BB01460890049800F0EAFC089A0346D2
:1054E00011462046089300F002FB089BA3B9069AD8
:1054F00092B9079A82B9B8F1390F29D0009B002BD5
:1055000001DD05F13108059B5D1C83F8008082E711
:105510003046C2E70123E3E7009A002A04DB25D1E5
:10552000069A1ABB079A0ABB002BECDD01220499EC
:10553000204600F069FC3946049000F0B9FC0028D0
:1055400003DCE0D118F0010FDDD0B8F1390FD8D16C
:10555000059B059A5D1C3923137015F8013C392B06
:1055600005F1FF324FD00133137054E7059A002B39
:1055700002F1010506DDB8F1390FE9D008F10108A3
:10558000059BC2E7029A05F8018CA5EB0B03934239
:1055900021D000230A220499204600F0BFFAB14529
:1055A00004904FF000034FF00A024946204605D10F
:1055B00000F0B4FA81460646059576E700F0AEFAAB
:1055C0003146814600230A22204600F0A7FA06460B
:1055D000F2E74FF0000901220499204600F014FC84
:1055E0003946049000F064FC0028B6DC02D118F0C3
:1055F000010FB2D115F8013C302B05F1FF327FF4D9
:105600000AAF1546F6E7934505D131230AF1010AA1
:105610008BF80030FFE615469FE7DFF864B007E03F
:10562000219BDFF860B01BB10BF10803219A1360D6
:10563000584617B0BDE8F08F069B012B7FF735AEBB
:105640000E9B079349E6029B002B03DC069B022B73
:105650003FF7CCAE5D4639460498FFF7CFF900F12D
:10566000300805F8018B029AA5EB0B039A42B0DDD6
:1056700000230A220499204600F050FA0490EAE739
:1056800054680008786800088A892DE9F0410546C9
:1056900010070C4658D44B68002B05DC0B6C002B14
:1056A00002DC0020BDE8F081E66A002EF9D000237C
:1056B00012F480522F68216A2B6032D0606DA3896A
:1056C0005A0705D56368C01A636B0BB1236CC01A07
:1056D00000230246E66A216A2846B047431CA38994
:1056E00006D129681D2948D8294ACA40D60744D579
:1056F00000226260D9042269226004D5421C01D1D3
:105700002B6803B96065616B2F600029C9D004F173
:105710004403994202D0284600F09EFC00206063BA
:10572000C0E701232846B047411CC8D12B68002B95
:10573000C5D01D2B01D0162B01D12F60B1E7A38955
:1057400043F04003A381ADE70F69002FA9D0930771
:105750000E6808BF4B690F6018BF0023A6EB07084F
:105760008B60B8F1000F9CDD43463A46216AA66A79
:105770002846B047002806DCA38943F04003A381F4
:105780004FF0FF308EE70744A8EB0008E9E700BFC1
:105790000100402038B50B6905460C46DBB118B155
:1057A00083690BB900F060F80C4B9C4209D16C681E
:1057B000B4F90C307BB121462846BDE83840FFF7EC
:1057C00063BF074B9C4201D1AC68F1E7054B9C429B
:1057D00008BFEC68ECE7002038BD00BFA8680008EF
:1057E000C868000888680008002310B50446C0E9AE
:1057F0000033836081814366C281C0E904338361E1
:10580000194608225C30FEF7C7FB054B6362054B67
:10581000A362054BE362054B2462236310BD00BF06
:1058200045640008676400089F640008C3640008BA
:10583000014900F085B800BF9557000870B54A1EB1
:10584000682555430E4605F1740100F053FC0446EB
:1058500040B10021C0E900160C30A06005F16802DB
:10586000FEF79AFB204670BD836910B5044633BB32
:10587000C0E912330365124B124A1B6882629842D8
:1058800004BF0123836100F01FF86060204600F030
:105890001BF8A060204600F017F80022E060042109
:1058A0006068FFF7A1FF01220921A068FFF79CFFB4
:1058B00002221221E068FFF797FF0123A36110BDC8
:1058C0004068000831580008F8B51B4B1E68B369E2
:1058D000074613B93046FFF7C7FF4836D6E901340B
:1058E000013B03D5336833B13668F7E7B4F90C50A0
:1058F0006DB16834F4E704213846FFF79FFF30604C
:105900000028F1D10C233B6004462046F8BD0B4B28
:105910006566C4E90055A560C4E90335C4E90555C9
:105920000822294604F15C00FEF736FBC4E90D5558
:10593000C4E91255E9E700BF406800080100FFFF15
:105940002DE9F8438046894600F14804002614B941
:105950003046BDE8F883D4E90175013F01D52468DC
:10596000F5E7AB89012B07D9B5F90E30013303D028
:1059700029464046C84706436835EEE7044B1B6896
:10598000186A044B002808BF1846F030704700BF63
:10599000040000206800002070B50E46B1F90E101A
:1059A000002996B014461D4607DA00232B60B38900
:1059B0001A0610D44FF480630EE06A4600F068FEC9
:1059C0000028F2DB019A02F47042A2F500535A4219
:1059D0005A412A60EEE740230020236016B070BDD4
:1059E0008B8973B59D0706460C4607D504F147031E
:1059F000236023610123636102B070BD01AB6A467D
:105A0000FFF7CAFF00990546304600F073FB48B91E
:105A1000B4F90C309A05EFD423F0030343F00203EA
:105A2000A381E3E70D4BB362A389206043F08003B9
:105A3000A381009B6361019B20615BB1B4F90E10EF
:105A4000304600F037FE28B1A38923F0030343F06A
:105A50000103A381A3891D43A581CDE73158000827
:105A6000024B0146186800F045BB00BF040000204F
:105A700010B5431E0A44914200D110BD11F8014BEC
:105A800003F8014FF7E770B5456A04460E463DB985
:105A90001020FFF7E5FF6062C0E901550560C560B1
:105AA000656AEB6883B1636ADB6853F82600B8B9AE
:105AB000012101FA06F56A1D9200204600F0BEFAA7
:105AC00060B1C0E901650EE021220421204600F00A
:105AD000B5FA636AE860DB68002BE4D1002070BD92
