:020000040800F2
:100000000000022081310008BD230008BF23000842
:10001000C1230008C3230008C52300080000000016
:10002000000000000000000000000000C7230008DE
:10003000C923000800000000CB230008CD230008DE
:10004000D1310008D1310008D1310008D131000888
:10005000D1310008D1310008D1310008D131000878
:10006000D1310008D1310008D1310008D131000868
:10007000D1310008D1310008D1310008D131000858
:10008000D1310008D1310008D1310008D131000848
:10009000D1310008D1310008D1310008D131000838
:1000A000D1310008D1310008D1310008D131000828
:1000B000D1310008D1310008D1310008D131000818
:1000C000D1310008D1310008D1310008D131000808
:1000D000D1310008D1310008D1310008D1310008F8
:1000E000D1310008D1310008D1310008D1310008E8
:1000F000D1310008D1310008D1310008D1310008D8
:10010000D1310008D1310008D9230008D1310008CD
:10011000D1310008D1310008D1310008D1310008B7
:10012000D1310008D1310008D1310008D1310008A7
:10013000D13100080000000000000000D1310008AB
:10014000D1310008D1310008D1310008D131000887
:10015000D1310008D1310008D1310008D131000877
:10016000D1310008D1310008D1310008D131000867
:10017000D1310008D131000800000000000000006B
:08018000D1310008D131000863
:1001900010B5054C237833B9044B13B10448AFF3C1
:1001A00000800123237010BDD40100200000000056
:1001B000F059000808B5034B1BB103490348AFF3DE
:1001C000008008BD00000000D8010020F0590008A0
:1001D000034613F8012B002AFBD1181A0138704787
:1001E00001F0FF01102A2BDB10F0070F08D010F8E8
:1001F000013B013A8B422DD010F0070F42B3F6D1EC
:10020000F0B441EA012141EA014122F007047FF004
:1002100000070023F0E80256083C85EA010586EA5B
:10022000010685FA47F5A3FA87F586FA47F6A5FA97
:1002300087F68EB9EED1F0BC01F0FF0102F00702A3
:1002400032B110F8013B013A83EA010313B1F8D14E
:100250000020704701387047002D06BF354603382F
:10026000073815F0010F07D1013015F4807F02BF68
:10027000013015F4C03F0130F0BC0138704700BFB9
:1002800081F0004102E000BF83F0004330B54FEA47
:1002900041044FEA430594EA050F08BF90EA020FB4
:1002A0001FBF54EA000C55EA020C7FEA645C7FEA47
:1002B000655C00F0E2804FEA5454D4EB5555B8BF6A
:1002C0006D420CDD2C4480EA020281EA030382EADB
:1002D000000083EA010180EA020281EA0303362D6D
:1002E00088BF30BD11F0004F4FEA01314FF4801C40
:1002F0004CEA113102D0404261EB410113F0004F52
:100300004FEA03334CEA133302D0524263EB430308
:1003100094EA050F00F0A780A4F10104D5F1200EA6
:100320000DDB02FA0EFC22FA05F2801841F1000101
:1003300003FA0EF2801843FA05F359410EE0A5F1D5
:1003400020050EF1200E012A03FA0EFC28BF4CF006
:10035000020C43FA05F3C01851EBE37101F00045BC
:1003600007D54FF0000EDCF1000C7EEB00006EEBC9
:100370000101B1F5801F1BD3B1F5001F0CD3490853
:100380005FEA30004FEA3C0C04F101044FEA4452AA
:1003900012F5800F80F09A80BCF1004F08BF5FEA31
:1003A000500C50F1000041EB045141EA050130BD11
:1003B0005FEA4C0C404141EB010111F4801FA4F1B4
:1003C0000104E9D191F0000F04BF01460020B1FA09
:1003D00081F308BF2033A3F10B03B3F120020CDA41
:1003E0000C3208DD02F1140CC2F10C0201FA0CF01F
:1003F00021FA02F10CE002F11402D8BFC2F1200C84
:1004000001FA02F120FA0CFCDCBF41EA0C01904039
:10041000E41AA2BF01EB0451294330BD6FEA040482
:100420001F3C1CDA0C340EDC04F11404C4F120026D
:1004300020FA04F001FA02F340EA030021FA04F37F
:1004400045EA030130BDC4F10C04C4F1200220FAD6
:1004500002F001FA04F340EA0300294630BD21FA14
:1004600004F0294630BD94F0000F83F4801306BFDA
:1004700081F480110134013D4EE77FEA645C18BFCE
:100480007FEA655C29D094EA050F08BF90EA020F65
:1004900005D054EA000C04BF1946104630BD91EA5D
:1004A000030F1EBF0021002030BD5FEA545C05D160
:1004B0004000494128BF41F0004130BD14F580049F
:1004C0003CBF01F5801130BD01F0004545F0FE4113
:1004D00041F470014FF0000030BD7FEA645C1ABF48
:1004E000194610467FEA655C1CBF0B46024650EA7F
:1004F000013406BF52EA033591EA030F41F40021AB
:1005000030BD00BF90F0000F04BF0021704730B530
:100510004FF4806404F132044FF000054FF0000105
:1005200050E700BF90F0000F04BF0021704730B5C6
:100530004FF4806404F1320410F0004548BF40429B
:100540004FF000013EE700BF42004FEAE2014FEAF0
:1005500031014FEA02701FBF12F07F4393F07F4FCB
:1005600081F06051704732F07F4208BF704793F0CE
:100570007F4F04BF41F40021704730B54FF46074E1
:1005800001F0004521F000411CE700BF50EA0102E4
:1005900008BF704730B54FF000050AE050EA01028D
:1005A00008BF704730B511F0004502D5404261EBFD
:1005B00041014FF4806404F132045FEA915C3FF43E
:1005C000D8AE4FF003025FEADC0C18BF03325FEADB
:1005D000DC0C18BF033202EBDC02C2F1200300FA8C
:1005E00003FC20FA02F001FA03FE40EA0E0021FAB1
:1005F00002F11444BDE600BF70B54FF0FF0C4CF49F
:10060000E06C1CEA11541DBF1CEA135594EA0C0F50
:1006100095EA0C0F00F0DEF82C4481EA030621EA8B
:100620004C5123EA4C5350EA013518BF52EA0335C6
:1006300041F4801143F4801338D0A0FB02CE4FF078
:100640000005E1FB02E506F00042E0FB03E54FF0A8
:100650000006E1FB03569CF0000F18BF4EF0010EA0
:10066000A4F1FF04B6F5007F64F5407404D25FEA9C
:100670004E0E6D4146EB060642EAC62141EA55514F
:100680004FEAC52040EA5E504FEACE2EB4F1FD0C91
:1006900088BFBCF5E06F1ED8BEF1004F08BF5FEA0F
:1006A000500E50F1000041EB045170BD06F00046C1
:1006B00046EA010140EA020081EA0301B4EB5C046E
:1006C000C2BFD4EB0C0541EA045170BD41F4801166
:1006D0004FF0000E013C00F3AB8014F1360FDEBF8B
:1006E000002001F0004170BDC4F10004203C35DA67
:1006F0000C341BDC04F11404C4F1200500FA05F3EA
:1007000020FA04F001FA05F240EA020001F000428A
:1007100021F0004110EBD37021FA04F642EB060100
:100720005EEA430E08BF20EAD37070BDC4F10C042A
:10073000C4F1200500FA04F320FA05F001FA04F2EE
:1007400040EA020001F0004110EBD37041F10001DA
:100750005EEA430E08BF20EAD37070BDC4F12005E5
:1007600000FA05F24EEA020E20FA04F301FA05F24D
:1007700043EA020321FA04F001F0004121FA04F2F5
:1007800020EA020000EBD3705EEA430E08BF20EAC5
:10079000D37070BD94F0000F0FD101F000464000FF
:1007A00041EB010111F4801F08BF013CF7D041EA81
:1007B000060195F0000F18BF704703F00046520085
:1007C00043EB030313F4801F08BF013DF7D043EA56
:1007D0000603704794EA0C0F0CEA135518BF95EA0C
:1007E0000C0F0CD050EA410618BF52EA4306D1D193
:1007F00081EA030101F000414FF0000070BD50EAB2
:10080000410606BF1046194652EA430619D094EA3B
:100810000C0F02D150EA013613D195EA0C0F05D125
:1008200052EA03361CBF104619460AD181EA030179
:1008300001F0004141F0FE4141F470014FF0000031
:1008400070BD41F0FE4141F4780170BD70B54FF0CC
:10085000FF0C4CF4E06C1CEA11541DBF1CEA13554C
:1008600094EA0C0F95EA0C0F00F0A7F8A4EB05042E
:1008700081EA030E52EA03354FEA013100F0888025
:100880004FEA03334FF0805545EA131343EA1263EE
:100890004FEA022245EA111545EA10654FEA0026A3
:1008A0000EF000419D4208BF964244F1FD0404F55C
:1008B000407402D25B084FEA3202B61A65EB0305B8
:1008C0005B084FEA32024FF480104FF4002CB6EB75
:1008D000020E75EB030E22BFB61A754640EA0C00F5
:1008E0005B084FEA3202B6EB020E75EB030E22BF35
:1008F000B61A754640EA5C005B084FEA3202B6EB76
:10090000020E75EB030E22BFB61A754640EA9C0034
:100910005B084FEA3202B6EB020E75EB030E22BF04
:10092000B61A754640EADC0055EA060E18D04FEAC2
:10093000051545EA16754FEA06164FEAC30343EA62
:1009400052734FEAC2025FEA1C1CC0D111F4801F2F
:100950000BD141EA00014FF000004FF0004CB6E728
:1009600011F4801F04BF01430020B4F1FD0C88BFC7
:10097000BCF5E06F3FF6AFAEB5EB030C04BFB6EBD2
:10098000020C5FEA500C50F1000041EB045170BDC5
:100990000EF0004E4EEA113114EB5C04C2BFD4EBF2
:1009A0000C0541EA045170BD41F480114FF0000E76
:1009B000013C90E645EA060E8DE60CEA135594EAF2
:1009C0000C0F08BF95EA0C0F3FF43BAF94EA0C0FF5
:1009D0000AD150EA01347FF434AF95EA0C0F7FF46A
:1009E00025AF104619462CE795EA0C0F06D152EABE
:1009F00003353FF4FDAE1046194622E750EA4106A2
:100A000018BF52EA43067FF4C5AE50EA41047FF4B2
:100A10000DAF52EA43057FF4EBAE12E74FF0FF3C17
:100A200006E000BF4FF0010C02E000BF4FF0010CE8
:100A30004DF804CD4FEA410C7FEA6C5C4FEA430C61
:100A400018BF7FEA6C5C1BD001B050EA410C0CBFB0
:100A500052EA430C91EA030F02BF90EA020F002012
:100A6000704710F1000F91EA030F58BF994208BF79
:100A700090422CBFD8176FEAE37040F00100704736
:100A80004FEA410C7FEA6C5C02D150EA013C07D18D
:100A90004FEA430C7FEA6C5CD6D152EA033CD3D0D8
:100AA0005DF8040B704700BF8446104662468C46D2
:100AB0001946634600E000BF01B5FFF7B7FF002805
:100AC00048BF10F1000F01BD4DF808EDFFF7F4FF2E
:100AD0000CBF012000205DF808FB00BF4DF808EDB9
:100AE000FFF7EAFF34BF012000205DF808FB00BFDC
:100AF0004DF808EDFFF7E0FF94BF012000205DF8FE
:100B000008FB00BF4DF808EDFFF7CEFF94BF0120B2
:100B100000205DF808FB00BF4DF808EDFFF7C4FFAB
:100B200034BF012000205DF808FB00BF4FEA410CF4
:100B30007FEA6C5C02D150EA013C0AD14FEA430CD7
:100B40007FEA6C5C02D152EA033C02D14FF0000014
:100B500070474FF0010070474FEA410212F5001252
:100B600015D211D56FF47873B3EB625212D94FEAF4
:100B7000C12343F0004343EA505311F0004F23FADE
:100B800002F018BF404270474FF00000704750EA33
:100B9000013005D111F0004008BF6FF000407047F0
:100BA0004FF00000704700BF2DE9F843044601688C
:100BB0000A6922F44052C36813430B610168CA6892
:100BC00022F4164222F00C02836800690343606934
:100BD0000343E06903431343CB6021684A6922F46D
:100BE0004072A36913434B61E369B3F5004F60D0D2
:100BF0002368B84A934200F0148102F58062934260
:100C000000F00F8101F08CF900EB800000EB800018
:100C10006568AD00B0FBF5F5AF4FA7FB05356D0975
:100C20002E0101F07DF900EB800000EB800065688B
:100C3000AD00B0FBF5F901F073F900EB800000EBBB
:100C400080006568AD00B0FBF5F5A7FB05356D09C3
:100C50004FF0640808FB15952D013235A7FB0535CB
:100C60006D0905F0F005354401F05AF900EB8000FC
:100C700000EB80006668B600B0FBF6F601F050F9B4
:100C800000EB800000EB800063689B00B0FBF3F09A
:100C9000A7FB0030400908FB10684FEA081808F16C
:100CA0003208A7FB0837C7F3431723682F449F6018
:100CB0000DE12368874A93425BD002F5806293423C
:100CC00057D001F02DF900EB800000EB8000656843
:100CD0006D00B0FBF5F5804FA7FB05356D092E01C2
:100CE00001F01EF900EB800000EB800065686D00EC
:100CF000B0FBF5F901F014F900EB800000EB800087
:100D000065686D00B0FBF5F5A7FB05356D094FF083
:100D1000640808FB1595ED003235A7FB05356D0914
:100D20006D0005F4F875354401F0FAF800EB800029
:100D300000EB800066687600B0FBF6F601F0F0F894
:100D400000EB800000EB800063685B00B0FBF3F316
:100D5000A7FB03235B0908FB13684FEAC80808F1E7
:100D60003208A7FB0837C7F3421723682F449F6058
:100D7000ADE001F0EBF800EB800000EB800065686F
:100D80006D00B0FBF5F5544FA7FB05356D092E013D
:100D900001F0DCF800EB800000EB800065686D007E
:100DA000B0FBF5F901F0D2F800EB800000EB800019
:100DB00065686D00B0FBF5F5A7FB05356D094FF0D3
:100DC000640808FB1595ED003235A7FB05356D0964
:100DD0006D0005F4F875354401F0B8F800EB8000BB
:100DE00000EB800066687600B0FBF6F601F0AEF826
:100DF00000EB800000EB800063685B00B0FBF3F366
:100E0000A7FB03235B0908FB13684FEAC80808F136
:100E10003208A7FB0837C7F3421723682F449F60A7
:100E200055E001F093F800EB800000EB800065686E
:100E3000AD00B0FBF5F5284FA7FB05356D092E0178
:100E400001F084F800EB800000EB80006568AD00E5
:100E5000B0FBF5F901F07AF800EB800000EB8000C0
:100E60006568AD00B0FBF5F5A7FB05356D094FF0E2
:100E7000640808FB15952D013235A7FB05356D0972
:100E800005F0F005354401F061F800EB800000EB5F
:100E900080006668B600B0FBF6F601F057F800EB8C
:100EA000800000EB800063689B00B0FBF3F0A7FBC1
:100EB0000030400908FB10684FEA081808F13208B2
:100EC000A7FB0837C7F3431723682F449F60BDE88B
:100ED000F88300BF001001401F85EB512DE9F04160
:100EE00005460F4616469846069C2B681B6837EA4F
:100EF00003030CBF01230023B3421DD1B4F1FF3F14
:100F0000F3D02CB100F0DCF9A0EB0800A042ECD942
:100F10002A68D36823F4D073D3602A68536923F016
:100F200001035361202385F8393085F83A300023D6
:100F300085F83830032000E00020BDE8F08158B388
:100F400010B5044690F839300BB3242384F83930B7
:100F50002268D36823F40053D3602046FFF724FEB1
:100F60002268136923F4904313612268536923F0C4
:100F70002A0353612268D36843F40053D3600020EE
:100F8000E063202384F8393084F83A3010BD80F8CB
:100F9000383000F0A3FCD8E7012070472DE9F0417C
:100FA00082B01E4690F83930DBB2202B55D1044672
:100FB0000D469046002955D0002A55D090F838307B
:100FC000012B53D0012380F838300023C363212341
:100FD00080F8393000F074F90746A4F82480A4F8AA
:100FE000268010E000963B46002280212046FFF735
:100FF00075FF00283CD12B882268C3F30803536097
:101000002369C3B90235E38C9BB2B3B1E38C013BD6
:101010009BB2E384A368B3F5805FE3D000963B46C0
:10102000002280212046FFF759FF18BB2A78236849
:101030005A600135E7E70135E5E700963B460022B7
:1010400040212046FFF74AFF0346A8B9202284F832
:101050003920002284F8382000E00223184602B02C
:10106000BDE8F0810123F9E70123F7E70223F5E763
:101070000323F3E70323F1E70323EFE700230F2B19
:1010800000F2D780F0B482B039E0072200E00022FD
:10109000B2403A430234674E46F82420664A146848
:1010A000EA4302EA04064F6817F4803F01D045EA9C
:1010B0000406614C2660646802EA04064F6817F46F
:1010C000003F01D045EA04065B4C6660A46802EA72
:1010D00004064F6817F4801F01D045EA0406564CF9
:1010E000A660E46822404E6816F4001F01D045EA6D
:1010F0000402514CE26001330F2B00F29780012271
:101100009A400C6804EA0205AA42F4D14C68022C09
:1011100001D0122C10D1DE08083650F826C003F09A
:101120000704A7000F24BC402CEA040C0C69BC4047
:1011300044EA0C0440F8264004685F000326BE40E1
:10114000F64306EA040C4C6804F00304BC4044EA8D
:101150000C0404604C6804F1FF3CBCF1010F03D99E
:10116000112C01D0122C10D1846806EA040CCC6832
:10117000BC4044EA0C048460446824EA02024C68DF
:10118000C4F300149C4014434460C26816408A684B
:10119000BA403243C2604A6812F0805FABD000228E
:1011A0000192264A546C44F480445464526C02F414
:1011B00080420192019A9C08A61C1E4A52F8267091
:1011C00003F0030296000F22B24027EA02071C4AEE
:1011D00090423FF45CAF02F5806290421AD002F573
:1011E0008062904218D002F58062904216D002F5DB
:1011F0008062904214D002F58062904212D002F5D3
:101200008062904210D002F5806290423FF43DAF80
:1012100008223DE701223BE7022239E7032237E7B4
:10122000042235E7052233E7062231E702B0F0BC9D
:101230007047704700380140003C014000380240D0
:101240000000024012B90904816170478161704752
:1012500010B50446074B1868074BA3FB0030800904
:1012600000F098F8002221464FF0FF3000F052F8CD
:10127000002010BD00000020D34D621008B50B4BBC
:101280001A6842F400721A601A6842F480621A60A6
:101290001A6842F480721A60032000F029F80020D6
:1012A000FFF7D6FF00F050FA002008BD003C0240D6
:1012B000024A136801331360704700BFFC0100202D
:1012C000014B1868704700BFFC01002030B583B0A7
:1012D0000190FFF7F5FF0546019CB4F1FF3F00D0F8
:1012E0000134FFF7EDFF401BA042FAD303B030BD3D
:1012F000074AD36823F4E0631B041B0C000200F4CC
:10130000E060184340F0BF6040F40030D0607047A8
:1013100000ED00E030B4174BDB68C3F30223C3F1E8
:101320000704042C28BF04241D1D062D18D9033BD7
:101330004FF0FF3505FA04F421EA0401994005FA5B
:1013400003F322EA0303194300280BDB0901C9B2A6
:1013500000F1604000F5614080F8001330BC704738
:101360000023E5E700F00F000901C9B2024B195450
:10137000F4E700BF00ED00E014ED00E000F01F0214
:10138000400901239340024A42F82030704700BFD1
:1013900000E100E00138B0F1807F0AD2064B5860CE
:1013A000064AF02182F823100020986007221A6074
:1013B00070470120704700BF10E000E000ED00E042
:1013C000042805D0054A136823F00403136070470E
:1013D000024A136843F004031360704710E000E012
:1013E000704708B5FFF7FCFF08BD000000B583B0EB
:1013F00002A901F8010D01231A460348FFF7CEFDAB
:1014000003B05DF804FB00BFD8020020FEE7000037
:1014100000B595B000220192294B196C41F0805122
:1014200019641B6C03F080530193019B0292254BBE
:10143000196841F4804119601B6803F480430293EA
:10144000029B0223089301210B9110210C910E9312
:101450000F92082210925022119212930423139398
:1014600008A800F067FA18BB0F2303930223049324
:10147000802305934FF480530693002307930121A3
:1014800003A800F079FCB8B900F044FD0E4BA3FBB3
:1014900000308009FFF77EFF0420FFF791FF002254
:1014A00011464FF0FF30FFF735FF15B05DF804FB34
:1014B000B4210648FFF7AAFFC2210448FFF7A6FFA0
:1014C0000038024000700040D34D6210085A0008F6
:1014D00008B5FFF7D3FEFFF79BFF00F0DDFE00F03D
:1014E000DFF901F069FB01F095FC01F0EBFC01F084
:1014F0002DFB01F0B1FD00F021F800F057F800F0ED
:101500008DF801F08FFB4FF44871872001F024FD26
:101510004FF4FA70FFF7DAFE0021092001F01CFDFC
:10152000044B1B680021986802F0FAFA024802F0A6
:10153000DFFAFBE704000020145A000800B585B06C
:101540001648174B03604FF48033436000238360D9
:101550000122026182610362C36212498162C36037
:10156000C2610363426100F0A5FD68B900230093E6
:1015700001230193032302936946084800F0C4FD48
:1015800038B905B05DF804FB4A210748FFF73EFF74
:10159000ECE754210448FFF739FFF2E74802002046
:1015A000002001400100000F245A000800B585B05A
:1015B0001648174B03604FF4803343600023836069
:1015C0000122026182610362C36212498162C360C7
:1015D000C2610363426100F06DFD68B904230093AA
:1015E00001230193032302936946084800F08CFD10
:1015F00038B905B05DF804FB6D210748FFF706FF19
:10160000ECE777210448FFF701FFF2E70002002032
:10161000002101400100000F245A000800B585B0E8
:101620001648174B03604FF48033436000238360F8
:101630000122026182610362C36212498162C36056
:10164000C2610363426100F035FD68B90A2300936B
:1016500001230193032302936946084800F054FDD7
:1016600038B905B05DF804FB90210748FFF7CEFEBE
:10167000ECE79A210448FFF7C9FEF2E79002002048
:10168000002201400100000F245A000800B589B073
:101690000368274A934208D0264A93421BD0264A21
:1016A00093422ED009B05DF804FB00210091234B3A
:1016B0005A6C42F480725A645B6C03F4807300933A
:1016C000009B0F23039303230493059103A91C4854
:1016D000FFF7D4FCE6E700210191184B5A6C42F465
:1016E00000725A645B6C03F400730193019BF02356
:1016F000039303230493059103A91148FFF7BEFC4C
:10170000D0E7002102910D4B5A6C42F480625A647A
:101710005B6C03F480630293029B0F230393032308
:101720000493059103A90748FFF7A8FCBAE700BF97
:101730000020014000210140002201400038024009
:10174000000002400008024008B50320FFF7D0FD6A
:10175000002211466FF00B00FFF7DCFD002211465E
:101760006FF00A00FFF7D6FD002211466FF0090066
:10177000FFF7D0FD002211466FF00400FFF7CAFD0D
:10178000002211466FF00300FFF7C4FD002211464E
:101790006FF00100FFF7BEFD002211464FF0FF3051
:1017A000FFF7B8FD08BD90F83830012B22D030B4D7
:1017B000012280F83820022380F8393004686368F9
:1017C00023F070036360046863680D682B436360F3
:1017D0000468A36823F08003A3600468A3684968D1
:1017E0000B43A36080F83920002380F83830184676
:1017F00030BC70470220704790F83830012B25D05C
:10180000012380F83830CB6823F440738A6813438F
:1018100023F480634A68134323F400630A68134384
:1018200023F480530A69134323F400534A69134392
:1018300023F480438A69134323F40043134302686B
:101840005364002380F838301846704702207047F0
:10185000704770470F49D1F8883043F47003C1F8DE
:1018600088300D4B1A6842F001021A60002098601F
:101870001A6822F0847222F480321A60074A5A6091
:101880001A6822F480221A60D8604FF000638B60DF
:10189000704700BF00ED00E0003802401030002427
:1018A00008B50B480B4B03604FF4165343600023FD
:1018B0008360C36003610C2242618361C361FFF7EF
:1018C0003EFB00B908BD42210348FFF79FFDF9E741
:1018D000D802002000100140485A00080268124B4C
:1018E0009A4200D0704700B587B0002300930F4B99
:1018F0005A6C42F010025A645B6C03F010030093C0
:10190000009B4FF4C06301930223029301230393CE
:10191000032304930723059301A90548FFF7AEFBB2
:1019200007B05DF804FB00BF001001400038024022
:101930000000024030B583B00446036813F0010F85
:101940003BD0A94B9B6803F00C03042B2CD0A64B77
:101950009B6803F00C03082B21D06368B3F5803F2C
:101960004FD0B3F5A02F52D09F4B1A6822F480328B
:101970001A601A6822F480221A606368002B50D023
:10198000FFF79EFC0546984B1B6813F4003F14D1EB
:10199000FFF796FC401B6428F5D9032099E1924B90
:1019A0005B6813F4800FD8D08F4B1B6813F4003F93
:1019B00003D06368002B00F08981236813F0020FC5
:1019C0005BD0894B9B6813F00C0F3ED0864B9B6815
:1019D00003F00C03082B33D0E368002B74D0834B47
:1019E00001221A60FFF76CFC05467F4B1B6813F061
:1019F000020F5AD1FFF764FC401B0228F5D90320DF
:101A000067E1794A136843F480331360B5E7764B96
:101A10001A6842F480221A601A6842F480321A600E
:101A2000ABE7FFF74DFC05466F4B1B6813F4003F17
:101A3000C3D0FFF745FC401B6428F5D9032048E1DB
:101A4000694B5B6813F4800FC6D1674B1B6813F0BA
:101A5000020F04D0E368012B01D0012039E1624874
:101A6000036823F0F8032169F82292FAA2F2B2FA8D
:101A700082F201FA02F213430360236813F0080FA5
:101A800046D0636993B35A4B01221A60FFF718FCE2
:101A90000546554B5B6F13F0020F39D1FFF710FC71
:101AA000401B0228F5D9032013E14F48036823F0B7
:101AB000F8032169F82292FAA2F2B2FA82F201FA4C
:101AC00002F213430360D8E7484B00221A60FFF785
:101AD000F7FB0546444B1B6813F0020FCDD0FFF710
:101AE000EFFB401B0228F5D90320F2E0404B002217
:101AF0001A60FFF7E5FB05463B4B5B6F13F0020FE7
:101B000006D0FFF7DDFB401B0228F5D90320E0E0FB
:101B1000236813F0040F20D1A369002B00F0D880B4
:101B2000314A926802F00C02082A00F0D480022B9D
:101B300000F080802F4B00221A60FFF7C1FB0446A3
:101B4000294B1B6813F0007F00F0BE80FFF7B8FB45
:101B5000001B0228F4D90320BBE000230193224B91
:101B60001A6C42F080521A641B6C03F0805301938C
:101B7000019B214A136843F480731360FFF7A0FBB5
:101B800005461D4B1B6813F4807F06D1FFF798FBB9
:101B9000401B0228F5D903209BE0A368012B1DD030
:101BA000052B2BD0104B1A6F22F001021A671A6F07
:101BB00022F004021A67A36853B3FFF781FB0546BE
:101BC000094B1B6F13F0020FA6D1FFF779FB401BE7
:101BD00041F288339842F3D903207AE0024A136F26
:101BE00043F001031367E6E7003802400000474274
:101BF000800E47426000474200700040374B1A6F2A
:101C000042F004021A671A6F42F001021A67D2E723
:101C1000FFF756FB0546314B1B6F13F0020F3FF4E5
:101C20007BAFFFF74DFB401B41F288339842F2D95E
:101C300003204EE02A4B00221A60FFF741FB0546C5
:101C4000264B1B6813F0007F06D0FFF739FB401BC3
:101C50000228F5D903203CE0E369226A1343616A54
:101C600047F6C07292FAA2F2B2FA82F201FA02F2D6
:101C70001343A26A5208013A4FF4403191FAA1F19C
:101C8000B1FA81F18A401343E16A4FF0706292FA2F
:101C9000A2F2B2FA82F201FA02F213430F4A53603F
:101CA0000F4B01221A60FFF70BFB04460B4B1B681E
:101CB00013F0007F06D1FFF703FB001B0228F5D9C4
:101CC000032006E0002004E0002002E0012000E004
:101CD000002003B030BD0120FBE700BF0038024008
:101CE00060004742214B9B6803F00C03042B3AD061
:101CF000082B01D01E4870471C4B586800F03F006D
:101D00005B6813F4800F1ED01A4AB2FBF0F2174B37
:101D1000586847F6C073184093FAA3F3B3FA83F3F5
:101D2000D84000FB02F0114B5B6803F440334FF4E2
:101D3000403292FAA2F2B2FA82F2D34001335B004F
:101D4000B0FBF3F070470A4AB2FBF0F2074B586859
:101D500047F6C073184093FAA3F3B3FA83F3D8405D
:101D600000FB02F0DFE70348704700BF0038024085
:101D70000024F40040787D01624B1B6803F00F03E0
:101D80008B4209D2CBB25F4A1370136803F00F0382
:101D90008B4201D00120704770B5036813F0020F29
:101DA00006D0594A936823F0F00384682343936074
:101DB0000C460546036813F0010F64D04368012BFD
:101DC00026D09A1E012A2AD94F4A126812F0020F11
:101DD00000F096804C498A6822F0030213438B601E
:101DE000FFF76EFA06466B68012B1FD0022B2CD032
:101DF000032B39D0444B9B6813F00C0F43D0FFF7F3
:101E00005FFA801B41F288339842F3D9032076E0D1
:101E10003D4A126812F4003FDCD101206FE03A4ADB
:101E2000126812F0007FD5D1012068E0364B9B6824
:101E300003F00C03042B26D0FFF742FA801B41F27B
:101E400088339842F2D9032059E02F4B9B6803F066
:101E50000C03082B17D0FFF733FA801B41F28833AD
:101E60009842F2D903204AE0274B9B6803F00C0309
:101E70000C2B08D0FFF724FA801B41F288339842DC
:101E8000F2D903203BE01F4B1B6803F00F03A34272
:101E900009D9E2B21B4B1A701B6803F00F03A3426F
:101EA00001D001202BE02B6813F0040F06D0164A56
:101EB000936823F4E053E9680B4393602B6813F0B5
:101EC000080F07D0104A936823F46043296943EA56
:101ED000C1039360FFF706FF0B4B9B6803F0F00311
:101EE000F02292FAA2F2B2FA82F2D340074AD35C0D
:101EF000D840074B18600020FFF7AAF9002070BDFA
:101F00000120FCE7003C024000380240305A000843
:101F100000000020014B1868704700BF000000203F
:101F200008B5FFF7F7FF074B9B6803F4E0534FF446
:101F3000E05292FAA2F2B2FA82F2D340024AD35CA1
:101F4000D84008BD00380240405A000808B5FFF7E5
:101F5000E1FF074B9B6803F460434FF4604292FA41
:101F6000A2F2B2FA82F2D340024AD35CD84008BD52
:101F700000380240405A00084C4B5A6822F4403264
:101F80005A605A6841680A435A600268536823F4E9
:101F90008073536002685368016943EA0123536008
:101FA0000268536823F04073536002685368816885
:101FB0000B4353600268936823F4006393600268E4
:101FC0009368C1680B439360826A394B9A4249D047
:101FD0000268936823F07063936002689368816A73
:101FE0000B4393600268936823F040539360026848
:101FF0009368C16A0B4393600268936823F00203FD
:10200000936002689368816943EA41039360036ABD
:10201000002B32D10268536823F4006353600268D6
:10202000D36A23F47003D3620168CB6AC269013AB0
:1020300043EA0253CB620268936823F4007393600F
:1020400002689368016B43EA4123936002689368D6
:1020500023F48063936002689368416943EA8123B3
:10206000936070470268936823F07063936002681E
:10207000936823F040539360BEE70268536843F4CB
:10208000006353600268536823F460435360436AFB
:10209000013B4FF4604292FAA2F2B2FA82F293400C
:1020A00001684A6813434B60B9E700BF0023014051
:1020B0000100000F30B310B50446036C43B1236C2C
:1020C00013F0100F0AD00120002384F83C3010BD1B
:1020D000436480F83C30FFF7D9FAF0E7236C23F42F
:1020E000885323F0020343F0020323642046FFF7E2
:1020F00043FF00206064236C23F0030343F00103DB
:102100002364E1E70120704730B482B000230193DB
:1021100090F83C30012B00F0B780012380F83C3070
:102120000B68092B3ED90568EA689BB203EB4303B1
:102130001E3B072404FA03F322EA0303EB6005685D
:10214000EA688C680B8803EB43031E3B04FA03F335
:102150001343EB604B68062B3AD805686A6B03EBB8
:102160008303053B1F2404FA03F322EA03036B6392
:1021700005686A6B4B6803EB8303053B0C8804FA24
:1021800003F313436B630268404B9A4250D00268DA
:102190003E4B9A4255D0002380F83C30184602B09E
:1021A00030BC704705682A699BB203EB43030724E0
:1021B00004FA03F322EA03032B6105682A698C6899
:1021C0000B8803EB430304FA03F313432B61C1E7CA
:1021D0000C2B16D805682A6B03EB8303233B1F24C3
:1021E00004FA03F322EA03032B6305682A6B4B68A6
:1021F00003EB8303233B0C8804FA03F313432B63A1
:10220000C1E70568EA6A03EB8303413B1F2404FA34
:1022100003F322EA0303EB620568EA6A4B6803EB07
:102220008303413B0C8804FA03F31343EB62AAE7F0
:102230000B68122BABD1164A536843F480035360EA
:10224000A5E70B68103B012BA5D8114A536843F44E
:10225000000353600B68102B9DD10E4B1B6802F1DD
:10226000467202F52E3202F28332A2FB03239B0C4C
:1022700003EB83035A00019202E0019B013B0193AF
:10228000019B002BF9D186E7022088E7002001405E
:1022900000230140000000202DE9F0438BB0002412
:1022A0000194414B1A6B42F004021A631A6B02F05C
:1022B00004020192019A02941A6B42F001021A631D
:1022C0001A6B02F001020292029A03941A6B42F016
:1022D00002021A631A6B02F002020392039A049438
:1022E0001A6B42F008021A631B6B03F00803049395
:1022F000049B2E4E22464FF47B413046FEF7A2FF50
:10230000DFF8B090224641F218014846FEF79AFFE6
:10231000274F22464FF440513846FEF793FFDFF82F
:102320009880224604214046FEF78CFF4FF47B4301
:102330000593012506950794089405A93046FEF7F4
:102340009DFE41F21803059306950794089405A98C
:102350004846FEF793FE4FF408430593069407940E
:1023600005A93846FEF78AFE4FF4405305930695BB
:102370000794089405A93846FEF780FE4FF4806361
:1023800005930694079405A93046FEF777FE0423CB
:10239000059306950794089405A94046FEF76EFE3E
:1023A0000BB0BDE8F08300BF0038024000080240D7
:1023B0000000024000040240000C02407047FEE7AB
:1023C000FEE7FEE7FEE770477047704708B5FEF787
:1023D0006FFFFFF706F808BD08B5024800F04EF998
:1023E00008BD00BF5C03002070B4036A23F0010342
:1023F0000362036A4268846924F073040D6845EA45
:10240000040623F002048B6823430C4DA84202D03B
:102410000B4CA0420BD123F00803CD682B4323F0D3
:10242000040322F440724D6915438A692A434260CD
:1024300086614A684263036270BC704700000140D5
:102440000004014030B4036A23F480730362036A1A
:102450004268C46924F073040D682C4323F40073AC
:102460008D6843EA05230E4DA84203D005F580652B
:10247000A8420ED123F40063CD6843EA052323F478
:10248000806322F440524D6942EA05128D6942EAA6
:1024900005124260C4614A68C263036230BC70477F
:1024A0000000014030B4036A23F480530362036ADE
:1024B0004468C26922F4E6420D6842EA052223F428
:1024C00000538D6843EA0533094DA84203D005F552
:1024D0008065A84204D124F480444D6944EA8514FF
:1024E0004460C2614A680264036230BC704700BF46
:1024F0000000014010B4036A046A24F0010404627D
:10250000846924F0F00444EA021223F00A030B4326
:10251000826103625DF8044B704710B4036A23F0D4
:10252000100303628469036A24F4704444EA0232AB
:1025300023F0A00343EA0113826103625DF8044BB8
:102540007047836823F0700341F0070119438160ED
:10255000704710B4846824F47F4442EA03230B4399
:10256000234383605DF8044B704790F83830012BAB
:102570007DD010B50446012380F83830022380F85E
:1025800039300268936823F47F4323F07703936024
:102590000B68402B57D010D9702B3ED01FD8502B32
:1025A00047D0602B32D1CA6849680068FFF7B5FF91
:1025B00060212068FFF7C5FF28E0102B4DD008D917
:1025C000202B4FD0302B21D130210068FFF7B9FFED
:1025D0001CE0DBB900210068FFF7B3FF16E0B3F59C
:1025E000805F0ED0B3F5005F10D1CB684A68896870
:1025F0000068FFF7AEFF2268936843F4804393605E
:1026000004E00268936823F007039360012384F8D1
:102610003930002084F8380010BDCB684A688968DA
:102620000068FFF796FF2268936843F07703936092
:10263000ECE7CA6849680068FFF75CFF5021206832
:10264000FFF77FFFE2E7CA6849680068FFF752FFBB
:1026500040212068FFF775FFD8E710210068FFF7D9
:1026600070FFD3E720210068FFF76BFFCEE7022061
:1026700070477047704770477047704710B5044601
:1026800003681A6912F0020F11D0DA6812F0020F13
:102690000DD06FF002021A610123037603689B6973
:1026A00013F0030F70D0FFF7E6FF002323762368B3
:1026B0001A6912F0040F12D0DA6812F0040F0ED06B
:1026C0006FF004021A610223237623689B6913F4D6
:1026D000407F5FD02046FFF7CEFF0023237623689C
:1026E0001A6912F0080F12D0DA6812F0080F0ED033
:1026F0006FF008021A61042323762368DB6913F064
:10270000030F4ED02046FFF7B6FF00232376236841
:102710001A6912F0100F12D0DA6812F0100F0ED0F2
:102720006FF010021A61082323762368DB6913F423
:10273000407F3DD02046FFF79EFF0023237623688D
:102740001A6912F0010F03D0DA6812F0010F36D1C6
:1027500023681A6912F0800F03D0DA6812F0800F34
:1027600034D123681A6912F0400F03D0DA6812F0EE
:10277000400F32D123681A6912F0200F03D0DA68B3
:1027800012F0200F30D110BDFFF774FF2046FFF785
:1027900073FF8AE72046FFF76DFF2046FFF76CFFC7
:1027A0009BE72046FFF766FF2046FFF765FFACE793
:1027B0002046FFF75FFF2046FFF75EFFBDE76FF0A3
:1027C00001021A612046FFF754FFC1E76FF0800253
:1027D0001A612046FFF73DF8C3E76FF040021A6127
:1027E0002046FFF74AFFC5E76FF020021A61204636
:1027F000FFF72EF8C7E7000003682E4A904212D078
:10280000B0F1804F0FD0A2F57C4290420BD002F580
:102810008062904207D002F58062904203D002F5B8
:102820007842904203D123F070034A681343214A4F
:1028300090422AD0B0F1804F27D0A2F57C4290423E
:1028400023D002F5806290421FD002F58062904250
:102850001BD002F57842904217D002F57052904298
:1028600013D002F5806290420FD002F58062904250
:102870000BD0A2F59832904207D002F580629042C8
:1028800003D002F58062904203D123F44073CA68FA
:10289000134303608B68C3620B688362054B9842E5
:1028A00003D003F58063984201D10B6903630123D0
:1028B0004361704700000140A8B110B5044690F88C
:1028C00039305BB1022384F83930211D2068FFF7CD
:1028D00093FF012384F83930002010BD80F8383090
:1028E00000F048FAEEE701207047A8B110B50446A1
:1028F00090F839305BB1022384F83930211D20680B
:10290000FFF77AFF012384F83930002010BD80F8EA
:10291000383000F0C1F9EEE701207047002847D0B9
:10292000F8B505460C4690F83930002B3BD0022311
:1029300085F83930294651F8042B936823F00703B2
:1029400093602868FFF758FF29688A688E690F6AC4
:102950002068104326F4407626F00306A268A36997
:1029600042EA0323334323F47C4323F0FC03E66869
:10297000E26946EA02261E43226A1303226943EAF9
:102980000213334327F0AA076268646942EA04121B
:102990003A43886029688B612B681A62012385F8A5
:1029A00039300020F8BD80F8383000F09DF9BEE7DE
:1029B0000120704730B4036A23F010030362036AF6
:1029C0004468826922F4E6420D6842EA052223F057
:1029D00020038D6843EA05130E4DA84203D005F588
:1029E0008065A8420ED123F08003CD6843EA051329
:1029F00023F0400324F440644D6944EA85048D6962
:102A000044EA8504446082614A688263036230BCA0
:102A1000704700BF0000014038B590F83830012BF6
:102A200066D00D460446012380F83830022380F832
:102A300039300C2A1AD8DFE802F0071919192019C1
:102A400019193419191947000068FFF7CDFC2268DD
:102A5000936943F0080393612268936923F00403A8
:102A600093612268936929690B439361012384F878
:102A70003930002084F8380038BD0068FFF79AFF2D
:102A80002268936943F4006393612268936923F495
:102A90008063936122689369296943EA0123936102
:102AA000E4E70068FFF7CEFC2268D36943F008032F
:102AB000D3612268D36923F00403D3612268D36908
:102AC00029690B43D361D1E70068FFF7EBFC22686B
:102AD000D36943F40063D3612268D36923F480632C
:102AE000D3612268D369296943EA0123D361BDE731
:102AF0000220C1E710B4012303FA01F4036A23EAB8
:102B000004030362036A8A40134303625DF8044BC3
:102B10007047000010B5044601220068FFF7EAFF85
:102B20002368094A934203D002F58062934203D19D
:102B30005A6C42F400425A642268136843F001035D
:102B40001360002010BD00BF0000014000B58DB033
:102B50001648174B03600023436083604FF6FF72F3
:102B6000C26003610322039204930122059206933B
:102B70000793089309920A930B9303A9FFF7CEFEDC
:102B800050B900230193029301A90848FEF70BFEF8
:102B900038B90DB05DF804FBAA210648FEF736FCF3
:102BA000EFE7B1210348FEF731FCF2E7980300207C
:102BB00000040040545A000800B58DB01648174B69
:102BC00003600023436083604FF6FF72C2600361BD
:102BD000032203920493012205920693079308931C
:102BE00009920A930B9303A9FFF798FE50B90023AB
:102BF0000193029301A90848FEF7D5FD38B90DB03D
:102C00005DF804FBCB210648FEF700FCEFE7D2217C
:102C10000348FEF7FBFBF2E7180300200008004022
:102C2000545A000800B587B01848194B03600923AF
:102C300043600023836040F2E732C2600361FFF724
:102C40003BFE98B906A94FF4805341F8103D0F4858
:102C5000FFF78BFC78B900230093019369460B487A
:102C6000FEF7A1FD60B907B05DF804FBE321094858
:102C7000FEF7CCFBE6E7E9210648FEF7C7FBEAE7EB
:102C8000F0210448FEF7C2FBEDE700BF5C03002023
:102C9000000C0040545A000882B00368104A934266
:102CA00004D0B3F1804F0ED002B0704700230093E0
:102CB0000C4B5A6C42F001025A645B6C03F0010346
:102CC0000093009BF0E700230193064B1A6C42F03F
:102CD00001021A641B6C03F001030193019BE3E7FB
:102CE000000001400038024000B589B003681D4A69
:102CF000934205D01C4A93421BD009B05DF804FBF7
:102D00000023019302F50D32116C41F002011164B0
:102D1000126C02F002020192019AC0220392022276
:102D2000049205930693079203A91048FEF7A6F9AB
:102D3000E3E70023029302F50C32116C41F0040129
:102D40001164126C02F004020292029AC0220392F1
:102D50000222049205930693079203A90448FEF702
:102D60008DF9CAE700040040000800400008024056
:102D70000004024002680E4B9A4200D0704700B532
:102D800083B00021019103F50B331A6C42F0080265
:102D90001A641B6C03F008030193019B0A4632205E
:102DA000FEF7B8FA3220FEF7E9FA03B05DF804FB4B
:102DB000000C004000B587B00368134A934205D069
:102DC000B3F1804F11D007B05DF804FB4FF480736E
:102DD0000193022302930023039304930123059399
:102DE00001A90A48FEF74AF9EDE74FF44063019361
:102DF000022302930023039304930123059301A963
:102E00000348FEF73BF9DEE7000001400000024006
:102E10000004024000B591B02748284B0360092305
:102E200043600023836040F2E732C2600361436184
:102E3000FFF75BFD00282AD100230E930F930EA904
:102E40001D48FEF7B0FC38BB6023079300220892B0
:102E500009920A920B920C920D9207A91648FFF75D
:102E6000DBFDF0B9002300930193029303930493D5
:102E70004FF400520592069369460F48FEF7BCFCDA
:102E8000A0B90D48FFF796FF11B05DF804FB47218C
:102E90000B48FEF7BBFACFE74E210948FEF7B6FA1A
:102EA000D2E75A210648FEF7B1FADBE7662104486B
:102EB000FEF7ACFAE5E700BFF00300200000014098
:102EC000545A000800B58BB021484FF0804303608E
:102ED000042343600023836040F2E732C260036151
:102EE000FFF703FDF8B900230893099308A91848D0
:102EF000FEF759FCE0B9602301930023029303938A
:102F00000593082201A91248FFF786FDA8B90C22F3
:102F100001A90F48FFF780FDA0B90D48FFF74AFF50
:102F20000BB05DF804FB79210A48FEF76FFADAE787
:102F300080210848FEF76AFADDE789210548FEF797
:102F400065FAE4E78E210348FEF760FAE5E700BF83
:102F50002C040020545A000810B50C461A4B1B4A8A
:102F60001A60586000229A6040F2E731D9601A6115
:102F70005A611846FFF7B9FC98B9154960230B60F0
:102F80004C6000228A60CA600A614A618A610E4808
:102F9000FFF742FD58B900210B48FFF7BBFD60B9B0
:102FA00010BD4FF4F7710B48FEF730FAE5E740F239
:102FB000F9110848FEF72AFAEDE74FF4FF710548CA
:102FC000FEF724FAECE700BFF00300200000014008
:102FD000D4030020545A000800283BD010B5044602
:102FE0000023836290F85130002B2ED0022384F806
:102FF00051302268136823F0400313606368A268AD
:103000001343E26813432269134362691343A269BD
:1030100002F400721343E2691343226A1343A16A64
:1030200022680B431360638B03F00403616A226818
:103030000B4353602268D36923F40063D3610020FB
:103040006065012384F8513010BD80F8503000F0E5
:1030500027F8CBE70120704708B50E480E4B0360F8
:103060004FF48273436000238360C3600361436154
:103070004FF400728261C3610362436283620A2378
:10308000C362FFF7A9FF00B908BD45210348FEF759
:10309000BDF9F9E76804002000380040605A0008D4
:1030A0000268124B9A4200D0704700B587B00021E9
:1030B000009103F500331A6C42F480421A641B6CD1
:1030C00003F480430093009B4FF460430193022379
:1030D00002930391032304930523059301A9044854
:1030E000FDF7CCFF07B05DF804FB00BF00380040DF
:1030F0000004024070B50D461646002404E0AFF30C
:103100000080287001340135B442F8DB304670BDD0
:1031100070B51646002405E04D1C0878FEF766F9E8
:1031200001342946B442F7DB304670BD08B503468A
:103130000B4A126842B10A4A106803446A46934235
:1031400006D8074A136008BD054A06491160F2E730
:1031500000F040F80C2303604FF0FF30F3E700BFAE
:10316000F0010020C80400204FF0FF3070474FF4FA
:1031700000534B60002070470120704700207047CB
:10318000DFF834D0002103E00C4B5B58435004318E
:103190000B480C4B42189A42F6D30B4A02E000232C
:1031A00042F8043B094B9A42F9D3FEF753FB00F077
:1031B00017F8FEF78DF9704700000220385D00080F
:1031C00000000020D4010020D4010020C40400200D
:1031D000FEE70000014B1868704700BF04000020A4
:1031E00070B50D4E0D4CA41BA4100025A54209D1AD
:1031F0000B4E0C4C02F0FCFBA41BA4100025A542B6
:1032000005D170BD56F8253098470135EEE756F8E0
:10321000253098470135F2E7305D0008305D000841
:10322000305D0008345D000802440346934200D13B
:10323000704703F8011BF9E72DE9FF4755EC104BE8
:103240000D9FDDF830A0002D0E4691461946B8BFFF
:1032500022462B4627F02007BBBF05F100431D4641
:1032600000232D23B8BF1446462F0B7004D0452FE2
:1032700000D10136022100E0032103AB019302AB30
:1032800000933246534645EC104B00F08DFD472F1E
:10329000804602D119F0010F26D0462F08EB06090F
:1032A00011D198F80030302B0AD10022002320469B
:1032B0002946FDF709FC18B9C6F10106CAF80060F5
:1032C000DAF8003099440022002320462946FDF711
:1032D000FBFB38B93022039B4B4505D2591C0391A7
:1032E0001A70F8E7CDF80C90039B0E9AA3EB080335
:1032F0004046136004B0BDE8F087F7B500290446E6
:10330000BABF49422D232B23092904F8022B43700D
:1033100020DD0DF107031F460A2691FBF6F506FB9B
:1033200015113031092D03F8011C03F1FF32294634
:1033300009DC3031023B02F8011CBB42224604D3B7
:10334000101A03B0F0BD1346E7E713F8012B04F899
:10335000012BF2E7302319448370021DC170EFE79F
:103360002DE9F04F8DB00C46DDF8588016461F460B
:10337000054601F04BFC036804931846FCF728FF50
:1033800000230A93D8F800300590073323F0070391
:1033900003F1080294F818A0D4F800B0C8F800208F
:1033A000D3E90023C4E91223D4E9128929F00043A8
:1033B0000793CDF818804FF0FF32A74BDDE90601E7
:1033C000FDF7B4FB70BB4FF0FF32A34BDDE9060104
:1033D000FDF78EFB30BB0022002340464946FDF737
:1033E0007DFB10B12D2384F843309C4A9C4BBAF1ED
:1033F000470F8CBF9046984603232BF004022361AD
:1034000022604FF00009009733460BAA2146284658
:1034100000F0E6F9013040F08D804FF0FF300DB044
:10342000BDE8F08F42464B4640464946FDF77EFBDD
:1034300010B18C4A8C4BDAE761684B1C4BF480620C
:103440000AA83ED1062363600023CDE9020309AB3D
:10345000009349EC108B0DF123032260CDF804A0FA
:1034600061682846FFF7E8FE0AF0DF03472B804635
:1034700009D1099BD81C02DB6268934247DDAAF19F
:10348000020A5FFA8AFABAF1650F099924D801395C
:10349000524604F150000991FFF72FFF0A9A1318C2
:1034A000012A8146236102DC2268D10701D501335C
:1034B00023619DF82330002BA5D02D2384F84330C1
:1034C000A1E7BAF1670F00F07781BAF1470FBBD1DE
:1034D0000029B9D10123B6E7BAF1660F19D1002945
:1034E00063680CDD216113B92268D20702D501336C
:1034F0000B442361099BA3654FF00009D9E713B979
:103500002268D00701D50233F3E70123F1E74FF03A
:10351000670ADDE90932934205DB22682361D1079E
:10352000E8D50133E5E7002BD4BFC3F10203012343
:103530001344DEE723685A0507D42369424631461F
:103540002846B84701302BD167E7BAF1650F40F242
:10355000DC8000220023D4E91201FDF7B5FA00282F
:1035600033D00123414A31462846B84701303FF461
:1035700054AFDDE909239A4202DB2368D8070FD54F
:10358000DDE9042331462846B84701303FF445AF12
:103590004FF0000804F11A090A9B013B434509DC7E
:1035A00023689B0700F10381E0680B9B9842B8BF3A
:1035B000184634E701234A4631462846B8470130C9
:1035C0003FF42BAF08F10108E6E7099B002B2BDC49
:1035D0000123264A31462846B84701303FF41DAF43
:1035E000099B23B90A9B13B92368D907D8D5DDE90C
:1035F000042331462846B84701303FF40EAF4FF060
:10360000000904F11A0A099B5B424B4501DC0A9B45
:1036100094E70123524631462846B84701303FF42B
:10362000FCAE09F10109EEE70A9AA36D9A42A8BF20
:103630001A46002A914607DD13463146424628467F
:10364000B84701303FF4E9AE04F11A034FF0000B24
:1036500029EAE979069315E0FFFFEF7F745A000825
:10366000705A00087C5A0008785A0008805A0008EE
:103670000123069A31462846B84701303FF4CDAEC3
:103680000BF1010BD4F858A0AAEB09035B45EFDC62
:10369000DDE909239A42D04415DB2368DA0712D406
:1036A0000A9B0999A3EB0A02A3EB010A9245A8BF62
:1036B0009246BAF1000F0EDC4FF000082AEAEA7ACF
:1036C00004F11A0919E0DDE9042331462846B84718
:1036D0000130E5D1A1E65346424631462846B84777
:1036E0000130E9D199E601234A4631462846B847D8
:1036F00001303FF492AE08F10108DDE909239B1A7D
:10370000A3EB0A034345EEDC4AE70A9A012A01DCEF
:10371000DB073AD50123424631462846B8470130F7
:103720003FF47BAEDDE9042331462846B84701303B
:1037300008F101083FF471AE0A9B002203F1FF3A41
:10374000D4E912010023FDF7BFF9C8B95346424638
:1037500031462846B84701300ED15EE60123524675
:1037600031462846B84701303FF457AE08F101080A
:103770000A9B013B4345F1DC4B4604F15002DEE677
:103780004FF0000804F11A0AF2E70123DFE70123F2
:103790004A4631462846B84701303FF43EAE08F16C
:1037A0000108E3680B9A9B1A4345F0DCFCE64FF0F6
:1037B000000804F11909F4E700293FF48BAE002357
:1037C000CDE9020309AB009349EC108B2260CDF8E0
:1037D00004A00DF123032846FFF72EFD804648E69E
:1037E0002DE9F04791461F468A680B69DDF8208075
:1037F0009342B8BF1346C9F8003091F843200646FB
:103800000C4612B10133C9F800302368990642BF53
:10381000D9F800300233C9F80030256815F00605E4
:1038200007D104F1190AE368D9F800209B1AAB42CA
:1038300028DC94F843302268003318BF0123920635
:103840002DD404F1430239463046C047013020D020
:103850002368E568D9F8002003F00603042B08BFAD
:10386000AD1AA36822690CBF25EAE57500259342CD
:10387000C4BF9B1AED184FF000091A344D451AD1F8
:10388000002008E00123524639463046C047013047
:1038900003D14FF0FF30BDE8F0870135C3E7E118F1
:1038A0005A1C302081F84300224494F8451082F8D5
:1038B00043100233C5E70123224639463046C0474C
:1038C0000130E6D009F10109D8E700002DE9F04305
:1038D00001F1430C0C46097E85B06E291746064659
:1038E00098460C9A00F0B38022D8632936D00AD8C3
:1038F000002900F0B980582900F0838004F14205C6
:1039000084F8421032E0642901D06929F6D1206898
:103910001368050603F104012AD51B681160002B0A
:1039200003DA2D225B4284F843206F480A2239E0F3
:10393000732900F09D8008D86F2920D07029DDD12F
:10394000236843F02003236003E0752917D078290A
:10395000D4D1782384F84530644855E01368191DA4
:103960001B68116004F1420584F8423001238CE0A9
:103970001B68116010F0400F18BF1BB2CFE713682F
:103980002568181D1060280601D51B6802E068062E
:10399000FBD51B8854486F2914BF0A220822002136
:1039A00084F843106568A560002DC0F295802168F9
:1039B00021F004012160002B3DD1002D40F08E80CC
:1039C0006546082A0BD12368DB0708D5236962689E
:1039D0009A42DEBF302305F8013C05F1FF35ACEB20
:1039E00005032361CDF800803B4603AA21463046FB
:1039F000FFF7F6FE01304DD14FF0FF3005B0BDE8C6
:103A0000F083394884F84510136821681D1D1B6830
:103A100015600A060BD5CA0744BF41F0200121609A
:103A20001BB9226822F0200222601022B7E74D065F
:103A300048BF9BB2EFE76546B3FBF2F102FB1133DF
:103A4000C35C05F8013D0B460029F5D1B9E71368C1
:103A500025686169181D106028061B6801D519606A
:103A600002E06A06FBD51980002323616546B9E7A9
:103A70001368191D11601D68626800212846FCF753
:103A8000AFFB08B1401B606063682361002384F8CA
:103A90004330A7E723692A4639463046C0470130FC
:103AA000AAD023689B0713D4E068039B9842B8BF51
:103AB0001846A3E701234A4639463046C04701303D
:103AC0009AD00135E368039A9B1AAB42F2DCEBE72C
:103AD000002504F11909F5E7002BACD1037884F82F
:103AE000423004F142056CE7825A0008935A0008FC
:103AF0000FB40A4B13B51C6824B1A36913B920464F
:103B000000F0FAFF05AB049AA1680193204601F08A
:103B1000BDFC02B0BDE8104004B0704704000020B6
:103B200000294FF480630CBF0222002200F000B88D
:103B30002DE9F7431D46514B1E6804460F4690463B
:103B400026B1B36913B9304600F0D6FF4C4B9C4206
:103B500052D17468B8F1020F06D0B8F1010F00F22B
:103B60008980002DC0F286802146304600F05AFF41
:103B7000616B41B104F14403994202D0304601F037
:103B8000B3FB002363630023A3616360A3891B0667
:103B900003D52169304601F0A7FBA38923F44A63CA
:103BA00023F00303B8F1020FA3815DD001AB6A4695
:103BB0002146304601F038F8A3891843A0812DBB77
:103BC000009D284601F094F8074600284ED1DDF804
:103BD0000090A9453CD14FF0FF30A38943F0020388
:103BE000A3810023A36004F1470323602361012321
:103BF000636103B0BDE8F083224B9C4201D1B468FD
:103C0000A8E7214B9C4208BFF468A3E7002FD8D057
:103C1000B36913B9304600F06FFFB8F1010F08BF68
:103C2000A389276004BF43F00103A381A38913F094
:103C30000800C4E904751BD013F0010018BF6D42E1
:103C40004FF000031DBFA360A5611846A560D0E733
:103C5000484601F04DF807460028BCD0A38943F040
:103C60008003A3814D46D3E70020B6E7A946F5E7D8
:103C7000A060BEE74FF0FF30BBE700BF04000020AC
:103C8000D45A0008F45A0008B45A00082DE9F74F36
:103C900003690C69A3428046C0F28280013C01F1B5
:103CA00014074FEA840C00F1140657F8245056F814
:103CB000240006EB0C03013507EB0C090193B0FB64
:103CC000F5F595B34FF0000A3846B646D34650F89E
:103CD000042B93B205FB03A34FEA134A9BB2ABEB51
:103CE0000303120CDEF800B005FB02A213FA8BF3FB
:103CF0004FEA124A1FFA82FBDEF80020CBEB124299
:103D000002EB23429BB243EA024381454FEA224B36
:103D10004EF8043BDBD256F80C3033B9019B043B20
:103D20009E421A4630D3C8F81040404601F008FAC7
:103D3000002825DB013530464FF0000C57F8042BE6
:103D4000D0F800E093B2ACEB0303120C13FA8EF33D
:103D5000C2EB1E4202EB23429BB243EA0243B94547
:103D60004FEA224C40F8043BE8D256F8242006EBF8
:103D700084032AB9043B9E421A460BD3C8F810406C
:103D8000284603B0BDE8F08F1268043B002ACAD170
:103D9000013CC5E71268043B002AEFD1013CEAE789
:103DA0000020EEE7000000002DE9F04F57EC106B0B
:103DB00097B0456A069104460B921293DDF8808015
:103DC000CDE900673DB9102000F092FF6062C0E9C4
:103DD00001550560C560636A196851B15A684A6047
:103DE000012393408B60204600F0C9FF636A0022E4
:103DF0001A603B1EBBBF23F0004301930023012246
:103E0000ACBFC8F80030C8F80020AF4BDDF8048024
:103E100033EA080314D1129A42F20F731360009B25
:103E200023B9C8F31300002800F04285219BDFF876
:103E3000ACB2002B00F044850BF1030300F03EBD53
:103E4000DDE900670022002330463946FCF73CFEDE
:103E5000814668B1129A01231360219B002B00F068
:103E600024859A4B219A03F1FF3B136000F028BD93
:103E700014AA15A947EC106B204601F0D8F9C8F335
:103E80000A550490002D7CD0C7F3130343F07F5BE9
:103E9000B2464BF4401BA5F2FF35CDF84C90002202
:103EA0008B4B50465946FCF7EFF981A3D3E9002329
:103EB000FCF7A2FB80A3D3E90023FCF7E7F9064651
:103EC00028460F46FCF72EFB7DA3D3E90023FCF721
:103ED00093FB02460B4630463946FCF7D7F90646B7
:103EE0000F46FCF739FE0022824600233046394651
:103EF000FCF7F4FD48B15046FCF714FB32463B4654
:103F0000FCF7E2FD08B90AF1FF3ABAF1160F59D8E9
:103F1000704901EBCA01DDE90023D1E90001FCF79A
:103F2000FBFD002850D00AF1FF3A00230F93149BA9
:103F30005D1BB5F1010849BFC5F1010300230593DD
:103F40004FF0000858BF0593BAF1000F3EDB002385
:103F5000D044CDF838A00793069B092B00F290803F
:103F6000052BC4BF043B0693069BA3F10203CCBF01
:103F700000250125032B00F28F80DFE803F07D7F11
:103F80003171DDE914531D4405F23240202813DD60
:103F9000C0F14000009B08FA00F805F2124023FA35
:103FA00000F048EA0000FCF7ADFA01238246A1F1D7
:103FB000F87B013D139372E7009BC0F1200003FAE8
:103FC00000F0F0E70123B1E70F90B0E7059BA3EB0A
:103FD0000A030593CAF10003079300230E93BBE77E
:103FE00001230A930B9B002B59DD02939946666AC5
:103FF00000227260042202F114009842716853D9C1
:10400000204600F088FE636A3060B9F10E0FD3F8E5
:1040100000B000F2E680002D00F0E3809DED007B13
:10402000BAF1000F8DED107B74DD2A4A0AF00F0300
:1040300002EBC30393ED007B4FEA2A16F0068DEDE9
:10404000087B65D5244BDDE91001D3E90823FCF793
:10405000FDFBCDE9000106F00F0603251E4F4CE0E5
:1040600001230A930B9B534403F1010902934B462E
:10407000012BB8BF0123BAE70023B2E70023F0E722
:104080000125002306930A954FF0FF3302939946CA
:10409000002212230B92AAE701230A93F4E70123DB
:1040A000029399461A46F5E7013171605200A2E782
:1040B00061436F63A787D23FB3C8608B288AC63F2E
:1040C000FB799F501344D33F0000F07F815A0008D2
:1040D0000000F83F405B0008185B0008AD5A00087C
:1040E000F10708D5DDE90801D7E90023FCF784FAD8
:1040F000CDE90801013576100837002EF0D1DDE951
:104100000823DDE90001FCF7A1FBCDE900011AE07D
:104110000225A3E700F0A080CAF100069F4BA04F44
:1041200006F00F0203EBC203D3E90023DDE910011F
:10413000FCF762FACDE90001361100230225002EBA
:104140007FD1002BE1D10F9B002B00F08780DDE9B0
:1041500000670022934B30463946FCF7BFFC00282D
:104160007CD0B9F1000F79D0029B002B35DD0AF12C
:10417000FF330893394600228B4B3046FCF73CFA5C
:10418000CDE90001029F01352846FCF7CBF9DDE9B6
:104190000023FCF731FA0022844BFCF777F8054640
:1041A000A1F15076002F5DD10022814BDDE90001A5
:1041B000FCF76AF82A463346CDE90001FCF7ACFC6F
:1041C000002840F088822A4606F10043DDE900011C
:1041D000FCF784FC002840F07C82DDE91023CDE967
:1041E0000023159B002BC0F25081BAF10E0F00F393
:1041F0004C816A4B03EBCA0393ED007B0B9B002BB6
:104200008DED027B80F2D880B9F1000F00F3D480ED
:1042100040F05E820022664B51EC170BFCF7ECF984
:10422000DDE90023FCF76EFC4F464E46002840F0C7
:10423000348231230BF101058BF800300AF1010AB9
:104240002FE2F20705D5D7E90023FCF7D5F90135B0
:1042500001237610083772E7022574E7CDF820A015
:104260004F4691E74D4B03EBC70353E902010A9B0D
:10427000002B47D002460B4600204E49FCF7E6FAD9
:104280002A463346FCF700F8CDE90C015D46DDE92E
:104290000001FCF761FC0646FCF744F902460B46B8
:1042A000DDE90001FBF7F0FF303605F8016BDDE9D1
:1042B0000C23CDE90001FCF711FC002863D1DDE9F6
:1042C000002300203749FBF7DFFFDDE90C23FCF773
:1042D00005FC002840F0B780A5EB0B039F427FF759
:1042E0007CAF0022304BDDE90C01FCF785F90022A0
:1042F000CDE90C012C4BDDE90001FCF77DF9CDE99E
:104300000001C4E72A463346FCF776F9CDE90C01F3
:104310000BEB07055E46DDE90001FCF71DFC0746D7
:10432000FCF700F9303702460B46DDE90001FBF7E8
:10433000ABFF06F8017BAE42CDE900014FF0000271
:1043400026D11C4BDDE90C01FBF7A0FF02460B4612
:10435000DDE90001FCF7E0FB002874D1DDE90C2366
:1043600000201449FBF790FF02460B46DDE90001EF
:10437000FCF7B4FB00283FF430AF15F8013C302BBC
:1043800005F1FF3202D0DDF820A04AE01546F4E73F
:10439000054BFCF731F9CDE90001BCE7405B0008B3
:1043A000185B00080000F03F0000244000001C40A3
:1043B000000014400000E03FDDE900675D46DDE9F4
:1043C000022330463946FCF741FAFCF7C5FB80462C
:1043D000FCF7A8F8DDE90223FCF70EF902460B46CC
:1043E0003046394608F13006FBF74EFF05F8016B01
:1043F000A5EB0B06B14502460B4639D1FBF746FF4C
:10440000DDE9022306460F46FCF786FBC8B9DDE965
:10441000022330463946FCF757FB10B118F0010F64
:104420000FD10499204600F0AAFC0023129A2B70A9
:104430000AF101031360219B002B00F041821D60F3
:104440003EE2CDF820A015F8012C392A05F1FF3302
:1044500008D19B450AD1089B0133089330238BF880
:1044600000305B461A7801321A708CE71D46EAE785
:1044700000229B4BFCF7C0F80022002306460F46A3
:10448000FCF722FB00289AD0CBE70A9A002A00F01A
:104490008B80069A012A6EDC139A002A67D003F2F9
:1044A0003343079F059D059A01211A442046059232
:1044B000984400F004FD0646002D0CDDB8F1000F15
:1044C00009DD4545059A2B46A8BF4346D21A0592F9
:1044D000ED1AA8EB0308079BEBB10A9B002B67D0F2
:1044E0008FB131463A46204600F088FD049A0146D5
:1044F0000646204600F0ECFC04990890204600F0A7
:104500003EFC089B0493079BDA1B04D004992046C9
:1045100000F074FD04900121204600F0D0FC0E9BB9
:104520000746002B00F0D0811A460146204600F0D5
:1045300065FD069B012B074640DC009B002B39D113
:10454000019BC3F31303002B36D1019B23F00043DF
:104550001B0D1B052BB1059B0133059308F10108C9
:10456000012307930E9B002B2AD1012030E0149BDE
:10457000C3F1360395E7079B09F1FF37BB42BFBF85
:10458000079B0797FA1A0E9BBBBF9B180E93DF1B66
:104590000027B9F1000FB5BF059B059DA3EB0905E9
:1045A0004B46B8BF00237EE7079F059D0A9E83E721
:1045B000079AABE70023D4E7009BD2E700230793D9
:1045C0003B6907EB8303186900F02BFCC0F1200066
:1045D000404410F01F0047D0C0F12003042B3BDD06
:1045E000059BC0F11C000344059305448044059BD2
:1045F000002B05DD1A460499204600F04DFD04907D
:10460000B8F1000F05DD39464246204600F044FD72
:1046100007460F9B53B33946049800F091FD0028DC
:1046200024DA00230A220499204600F0BFFB0A9BEB
:1046300004900AF1FF3A002B00F04D81002331462F
:104640000A22204600F0B2FB029B002B06464FDCFC
:10465000069B022B4CDD11E0C9D0059A1C331A448D
:1046600005921D449844C2E70346F6E7B9F1000FEE
:1046700038DC069B022B35DDCDF80890029B63B930
:1046800039460522204600F091FB01460746049872
:1046900000F056FD00283FF7CCAD0B9B5D466FEA5E
:1046A000030A4FF000093946204600F068FB002E4F
:1046B0003FF4B7AEB9F1000F05D0B14503D049467C
:1046C000204600F05CFB3146204600F058FBA8E68F
:1046D00000273E46E1E7DDF820A03E46A9E500BF01
:1046E000000024400A9BCDF80890002B00F0FA80CF
:1046F000002D05DD31462A46204600F0CDFC064659
:10470000079B002B4CD07168204600F004FB3269F7
:1047100002320546920006F10C010C3000F0F0FA6E
:1047200001222946204600F0B7FC009BCDF814B0CA
:1047300003F00103B1460793064639460498FFF794
:10474000A5FA4946054600F13008049800F0F8FC47
:10475000324600903946204600F00CFDC368024600
:1047600003BB01460890049800F0EAFC089A03464F
:1047700011462046089300F002FB089BA3B9069A55
:1047800092B9079A82B9B8F1390F29D0009B002B52
:1047900001DD05F13108059B5D1C83F8008082E78F
:1047A0003046C2E70123E3E7009A002A04DB25D163
:1047B000069A1ABB079A0ABB002BECDD012204996A
:1047C000204600F069FC3946049000F0B9FC00284E
:1047D00003DCE0D118F0010FDDD0B8F1390FD8D1EA
:1047E000059B059A5D1C3923137015F8013C392B84
:1047F00005F1FF324FD00133137054E7059A002BB7
:1048000002F1010506DDB8F1390FE9D008F1010820
:10481000059BC2E7029A05F8018CA5EB0B039342B6
:1048200021D000230A220499204600F0BFFAB145A6
:1048300004904FF000034FF00A024946204605D18C
:1048400000F0B4FA81460646059576E700F0AEFA28
:104850003146814600230A22204600F0A7FA064688
:10486000F2E74FF0000901220499204600F014FC01
:104870003946049000F064FC0028B6DC02D118F040
:10488000010FB2D115F8013C302B05F1FF327FF456
:104890000AAF1546F6E7934505D131230AF1010A1F
:1048A0008BF80030FFE615469FE7DFF864B007E0BD
:1048B000219BDFF860B01BB10BF10803219A136054
:1048C000584617B0BDE8F08F069B012B7FF735AE39
:1048D0000E9B079349E6029B002B03DC069B022BF1
:1048E0003FF7CCAE5D4639460498FFF7CFF900F1AB
:1048F000300805F8018B029AA5EB0B039A42B0DD54
:1049000000230A220499204600F050FA0490EAE7B6
:10491000805A0008A45A00088A892DE9F04105460A
:1049200010070C4658D44B68002B05DC0B6C002B91
:1049300002DC0020BDE8F081E66A002EF9D00023F9
:1049400012F480522F68216A2B6032D0606DA389E7
:104950005A0705D56368C01A636B0BB1236CC01A84
:1049600000230246E66A216A2846B047431CA38911
:1049700006D129681D2948D8294ACA40D60744D5F6
:1049800000226260D9042269226004D5421C01D150
:104990002B6803B96065616B2F600029C9D004F1F1
:1049A0004403994202D0284600F09EFC0020606338
:1049B000C0E701232846B047411CC8D12B68002B13
:1049C000C5D01D2B01D0162B01D12F60B1E7A389D3
:1049D00043F04003A381ADE70F69002FA9D09307EF
:1049E0000E6808BF4B690F6018BF0023A6EB0708CD
:1049F0008B60B8F1000F9CDD43463A46216AA66AF7
:104A00002846B047002806DCA38943F04003A38171
:104A10004FF0FF308EE70744A8EB0008E9E700BF3E
:104A20000100402038B50B6905460C46DBB118B1D2
:104A300083690BB900F060F80C4B9C4209D16C689B
:104A4000B4F90C307BB121462846BDE83840FFF769
:104A500063BF074B9C4201D1AC68F1E7054B9C4218
:104A600008BFEC68ECE7002038BD00BFD45A00084E
:104A7000F45A0008B45A0008002310B50446C0E9EF
:104A80000033836081814366C281C0E9043383615E
:104A9000194608225C30FEF7C7FB054B6362054BE5
:104AA000A362054BE362054B2462236310BD00BF84
:104AB000D5560008F75600082F570008535700082E
:104AC000014900F085B800BF254A000870B54A1EAC
:104AD000682555430E4605F1740100F053FC044669
:104AE00040B10021C0E900160C30A06005F1680259
:104AF000FEF79AFB204670BD836910B5044633BBB0
:104B0000C0E912330365124B124A1B688262984255
:104B100004BF0123836100F01FF86060204600F0AD
:104B20001BF8A060204600F017F80022E060042186
:104B30006068FFF7A1FF01220921A068FFF79CFF31
:104B400002221221E068FFF797FF0123A36110BD45
:104B50006C5A0008C14A0008F8B51B4B1E68B369BF
:104B6000074613B93046FFF7C7FF4836D6E9013488
:104B7000013B03D5336833B13668F7E7B4F90C501D
:104B80006DB16834F4E704213846FFF79FFF3060C9
:104B90000028F1D10C233B6004462046F8BD0B4BA6
:104BA0006566C4E90055A560C4E90335C4E9055547
:104BB0000822294604F15C00FEF736FBC4E90D55D6
:104BC000C4E91255E9E700BF6C5A00080100FFFF75
:104BD0002DE9F8438046894600F14804002614B9BF
:104BE0003046BDE8F883D4E90175013F01D524685A
:104BF000F5E7AB89012B07D9B5F90E30013303D0A6
:104C000029464046C84706436835EEE7044B1B6813
:104C1000186A044B002808BF1846F030704700BFE0
:104C2000040000206800002070B50E46B1F90E1097
:104C3000002996B014461D4607DA00232B60B3897D
:104C40001A0610D44FF480630EE06A4600F068FE46
:104C50000028F2DB019A02F47042A2F500535A4296
:104C60005A412A60EEE740230020236016B070BD51
:104C70008B8973B59D0706460C4607D504F147039B
:104C8000236023610123636102B070BD01AB6A46FA
:104C9000FFF7CAFF00990546304600F073FB48B99C
:104CA000B4F90C309A05EFD423F0030343F0020368
:104CB000A381E3E70D4BB362A389206043F0800337
:104CC000A381009B6361019B20615BB1B4F90E106D
:104CD000304600F037FE28B1A38923F0030343F0E8
:104CE0000103A381A3891D43A581CDE7C14A000823
:104CF000024B0146186800F045BB00BF04000020CD
:104D000010B5431E0A44914200D110BD11F8014B69
:104D100003F8014FF7E770B5456A04460E463DB902
:104D20001020FFF7E5FF6062C0E901550560C5602E
:104D3000656AEB6883B1636ADB6853F82600B8B92B
:104D4000012101FA06F56A1D9200204600F0BEFA24
:104D500060B1C0E901650EE021220421204600F087
:104D6000B5FA636AE860DB68002BE4D1002070BD0F
:104D7000026843F826200023C0E90333F7E770B543
:104D8000446A06460D463CB91020FFF7B1FF706239
:104D9000C0E901440460C4603DB1736A6A68DB68BD
:104DA00053F82210296043F8225070BD2DE9F041DC
:104DB0000D691F4606460C4601F1140C0023DCF871
:104DC000000081B202FB01710F0C000C02FB0070AD
:104DD00089B2013301EB00419D424FEA10474CF884
:104DE000041BECDCD7B1A368AB4212DC616830462F
:104DF0000131FFF790FF2269023204F10C01804675
:104E000092000C30FFF77CFF21463046FFF7B7FFDA
:104E1000444604EB850301355F6125612046BDE80A
:104E2000F081020C12040346B2B90304102013F0FF
:104E30007F4F04BF1B02083013F0704F04BF1B01EB
:104E4000043013F0404F04BF9B000230002B06DB00
:104E50005B0003D5013070470020E8E72020704751
:104E6000036813F0070201460BD0DA0723D4980732
:104E700049BF5B089B0801200B605CBF0B600220F0
:104E8000704798B2A8B91B0C102013F0FF0F04BF95
:104E90001B0A08301A0704BF1B0904309A0704BF15
:104EA0009B080230DA0702D45B0806D001300B60A1
:104EB00070471046E9E7002070472020704710B582
:104EC0000C460121FFF727FF01224461026110BD5A
:104ED0002DE9F74F14460A6923699A42B8BF0B4679
:104EE0008846BCBFA0461C46D8F81070D4F8109075
:104EF000D8F80830D8F8041007EB0906B342B8BF59
:104F00000131FFF708FF00F1140505EB860E2B4673
:104F10000022734516D304F1140208F1140102EBC8
:104F2000890301EB87070093009B019293420CD801
:104F3000002E03DD5EF8043D002B5DD0066103B05A
:104F4000BDE8F08F43F8042BE3E7B2F800B0BBF103
:104F5000000F23D08946AC464FF0000859F8044BA7
:104F6000DCF800A0A3B21FFA8AFA0BFB03A34FEAF6
:104F7000144ADCF8004043444FEA14480BFB0A840F
:104F800004EB1344E2469BB243EA04434F454FEA25
:104F900014484AF8043B2BD8CCF80480019BB3F8A2
:104FA00002A00432BAF1000F20D02B688946A8462F
:104FB0004FF0000BB9F800C0B8F802400AFB0C44EF
:104FC0005C44C4469BB243EA04434CF8043B59F8A2
:104FD000043BB8F804B01B0C0AFB03B303EB144307
:104FE0004F454FEA134B05D8C8F8043004359BE70A
:104FF000D446B3E7E046DDE7013E99E72DE9F84303
:10500000154612F0030206460F4607D0013A214C1E
:10501000002354F82220FFF7C9FE0746AD1035D013
:10502000746A3CB91020FFF763FE7062C0E9014466
:105030000460C460D6F82480D8F808404CB940F227
:1050400071213046FFF73BFF0023C8F808000446F3
:1050500003604FF00008EB070AD539462246304678
:10506000FFF736FF394681463046FFF788FE4F4648
:105070006D100BD0206838B9224621463046FFF724
:1050800027FF2060C0F800800446E4E73846BDE80A
:10509000F88300BF085C00082DE9F0470C464FEA92
:1050A000621A236949680AEB0309A3680746164692
:1050B00009F10105AB4232DB3846FFF72CFE002335
:1050C000804600F114011A4653452BDB20692AEA79
:1050D000EA7A04F1140316F01F0201EB8A0103EBD4
:1050E000800C25D0C2F1200E00201E688A46964012
:1050F00030434AF8040B53F8040B9C4520FA0EF099
:1051000014D8486008B109F10205013D3846C8F8D5
:1051100010502146FFF733FE4046BDE8F0870131CD
:105120005B00C7E741F823200133CDE75146DCE7B8
:10513000043953F8042B41F8042F9C45F9D8E4E7CF
:1051400003690A699B1A30B50CD1920014301431EE
:105150008418114454F8045D51F8042D954203D08D
:1051600005D30123184630BDA042F3D3FAE74FF030
:10517000FF33F7E72DE9F0470D460746114628466D
:105180001446FFF7DDFF061E08D131463846FFF70B
:10519000C2FD0123C0E90436BDE8F087A4BF234661
:1051A0002C4638466168A6BF1D4600260126FFF73B
:1051B000B2FD2B69C660266905F1140904F11402D9
:1051C00002EB860709EB830800F114054FF0000E8F
:1051D00052F804AB59F8044B1EFA8AF1A3B2C91A6B
:1051E000230CC3EB1A4303EB214389B24FEA234E4E
:1051F000C84541EA0343944645F8043BE8D8BC451A
:1052000004D355F8043D83B10661C5E75CF8041B7F
:105210001EFA81F31A1402EB11429BB243EA0243D5
:105220004FEA224E45F8043BE9E7013EE9E72DE964
:10523000F7430E46012159EC108B1546FFF76BFD25
:10524000C9F30A540746C9F3130334BB0193B8F1F9
:10525000000327D002A840F8083DFFF701FE00999F
:10526000F0B1019AC0F1200302FA03F30B43C240EC
:105270007B610192019BBB61002B14BF02210121C4
:105280003961C4B1A4F2334404443460C0F1350040
:105290002860384603B0BDE8F08343F48013D5E7B7
:1052A0007961E7E701A8FFF7DBFD019B7B61012145
:1052B00039612030E5E707EB8103A0F2324030602E
:1052C0001869FFF7AEFDC0EB4110E1E738B502FB0E
:1052D00001F4214600F056F8054618B12246002197
:1052E000FDF7A2FF284638BD38B50546002945D050
:1052F00051F8043C0C1F002BB8BFE41800F056FB1B
:105300001F4A1368104633B9636014602846BDE82D
:10531000384000F04CBBA3420CD92168621893427C
:1053200004BF1A685B68636004BF5218226004609F
:10533000ECE713465A680AB1A242FAD9196858181C
:10534000A0420BD120680144581882421960DDD177
:10535000106852685A6001441960D7E702D90C23DB
:105360002B60D3E7206821188A4204BF1168526875
:10537000626004BF091821605C60C7E738BD00BFE8
:10538000F401002070B5CD1C25F0030508350C2D67
:1053900038BF0C25002D064601DBA94203D90C239A
:1053A0003360002070BD00F001FB214A14682146E3
:1053B00091B9204C23681BB9304600F07BF920607E
:1053C0002946304600F076F9431C24D10C23336083
:1053D000304600F0ECFAE4E70B685B1B18D40B2BAB
:1053E0000FD90B60CD50CC18304600F0E0FA04F134
:1053F0000B00231D20F00700C31AD3D05A42E250FD
:10540000D0E78C424B6816BF636013600C46EBE735
:105410000C464968CCE7C41C24F00304A04205D024
:10542000211A304600F046F90130CFD02560DBE785
:10543000F4010020F80100209368013B002B10B418
:10544000936008DA9469A34201DB0A2903D15DF86D
:10545000044B00F083B91368581C1060197008469B
:105460005DF8044B7047F8B506460F461446D5184C
:10547000AC4201D1002007E03A4614F8011B304647
:10548000FFF7DAFF431CF3D1F8BD00002DE9F04F20
:105490009DB00C4617460393064618B183690BB9B5
:1054A000FFF72AFB7B4B9C4257D17468A3891807EE
:1054B0005DD52369002B5AD00023099320238DF852
:1054C000293030238DF82A304FF0010BB84645467D
:1054D00015F8013B0BB1252B54D1B8EB070A0BD0C3
:1054E00053463A4621463046FFF7BDFF013000F0F3
:1054F000C280099B5344099398F80030002B00F0B8
:10550000BA8000234FF0FF32CDE9052304930793BF
:105510008DF853301A93A846052218F8011B5E48EF
:10552000FAF75EFE049B78BBD90644BF20228DF8B3
:1055300053201A0744BF2B228DF853202A782A2A99
:105540002AD0079AA84600200A25414611F8013BB7
:10555000303B092B69D960B324E0504B9C4201D108
:10556000B468A3E74E4B9C4208BFF4689EE721460F
:10557000304600F057F900289ED04FF0FF301DB0A4
:10558000BDE8F08FA846A2E7434A801A0BFA00F064
:10559000184304904546BEE7039A111D1268039113
:1055A000002A01DB079204E0524243F00203079213
:1055B000049398F800302E2B0ED198F801302A2B46
:1055C00038D1039B1A1D1B680392002BB8BF4FF004
:1055D000FF3308F102080593324D98F800100322BA
:1055E0002846FAF7FDFD40B14023401B03FA00F0C6
:1055F000049B034308F10108049398F800102A481B
:105600008DF82810062208F10107FAF7E9FD0028B5
:1056100037D0264B1BBB039B073323F0070308330C
:105620000393099B4B44099350E705FB0232012089
:1056300088468AE7002308F10108059319460A25E0
:10564000404610F8012B303A092A03D9002BC3D069
:105650000591C1E705FB012101238046F0E703AB7B
:1056600000932246124B04A93046FDF779FEB0F1B3
:10567000FF3F8146D5D1A3895B063FF57EAF0998F0
:105680007DE703AB00932246094B04A93046FEF7A1
:105690001DF9ECE7D45A0008145C0008F45A00081D
:1056A000B45A00081A5C00081E5C00086133000848
:1056B0006754000838B5064C0023054608462360A9
:1056C000FDF734FD431C02D1236803B12B6038BDC4
:1056D000C004002010B50C46B1F90E1000F068F9B6
:1056E0000028ABBF636DA3891B1823F48053ACBFA4
:1056F0006365A38110BD2DE9F0411F468B89DB0551
:1057000005460C46164605D502230022B1F90E10B7
:1057100000F028F9A389B4F90E1023F48053A38173
:1057200032463B462846BDE8F04100F069B810B566
:105730000C46B1F90E1000F015F9431CA38915BFF2
:10574000606523F4805343F48053A38118BFA38181
:1057500010BDB1F90E1000F0D3B80000F8B50E4638
:105760001446054618B183690BB9FFF7C5F9214BFB
:105770009C422AD16C68A369A360A3891A072ED51D
:10578000236963B323692068C01A6369F6B2834250
:10579000374604DC21462846FFF744F928BBA368B6
:1057A000013BA36023685A1C22601E7063690130AC
:1057B000834204D0A389DB0719D50A2E17D12146CD
:1057C0002846FFF72FF990B10FE00B4B9C4201D117
:1057D000AC68D0E7094B9C4208BFEC68CBE7214698
:1057E000284600F01FF80028CCD04FF0FF3738468D
:1057F000F8BD00BFD45A0008F45A0008B45A000893
:1058000038B5074C054608461146002222601A4664
:10581000FDF77EFC431C02D1236803B12B6038BD29
:10582000C0040020324B70B51D6806460C4625B1F9
:10583000AB6913B92846FFF75FF92E4B9C420FD195
:105840006C68B4F90C309AB215072CD4D00611D478
:105850000922326043F04003A3814FF0FF303EE065
:10586000254B9C4201D1AC68EBE7244B9C4208BF1E
:10587000EC68E6E7510712D5616B41B104F14403CE
:10588000994202D03046FFF72FFD00236363A389BE
:1058900023F02403A3810023636023692360A38989
:1058A00043F00803A38123694BB9A38903F4207350
:1058B000B3F5007F03D021463046FFF7D9F9A2891E
:1058C00012F001030CD00023A36063695B42A36163
:1058D000236953B9B4F90C3013F08000BAD170BD0C
:1058E000920758BF6369A360F2E70020F7E700BFA3
:1058F00004000020D45A0008F45A0008B45A0008E2
:1059000038B5064C0023054608462360FDF72CFCFD
:10591000431C02D1236803B12B6038BDC0040020B2
:1059200038B5074C00230546084611462360FDF7AD
:105930001EFC431C02D1236803B12B6038BD00BF9D
:10594000C004002038B5064C0023054608462360F5
:10595000FDF712FC431C02D1236803B12B6038BD54
:10596000C004002038B5074C054608461146002201
:1059700022601A46FDF702FC431C02D1236803B1E2
:105980002B6038BDC004002082B001B901A942B12A
:105990004BB113780B601278101C18BF012002B0B5
:1059A00070471046FBE76FF00100F8E7704770475B
:1059B00038B5074C054608461146002222601A46B3
:1059C000FDF798FB431C02D1236803B12B6038BD5F
:1059D000C004002049B1FF2A85BF8A2303600A70F2
:1059E0004FF0FF3098BF0120704708467047000015
:1059F000F8B500BFF8BC08BC9E467047F8B500BFBC
:085A0000F8BC08BC9E4670478B
:105A08005372632F6D61696E2E63000073746F6D3E
:105A1800616368616368650D000000005372632F5D
:105A28006164632E630000000000000000000000B5
:105A3800010203040607080900000000010203042C
:105A48005372632F75736172742E63005372632FE0
:105A580074696D2E630000005372632F7370692E92
:105A68006300000008000020494E4600696E660089
:105A78004E414E006E616E003000303132333435A5
:105A880036373839414243444546003031323334A1
:105A9800353637383961626364656600496E666910
:105AA8006E697479004E614E00000000000000002D
:105AB80000000000000000000000000000000000DE
:105AC80000000000000000000000000000000000CE
